:1000000092CD1895189533C8189518951895189588
:1000100029C116C1189536CD1895189518951895BB
:10002000189518951895010000000A00000064005A
:100030000000E803000010270000A08601004042F5
:100040000F006B487A006D53200072706D00202005
:100050002000202046432D353130202000204175DE
:10006000746F204F6E202000204175746F204F6602
:1000700066200046202000464946005020200048C7
:100080004920004C4F200044202000526F7400464D
:10009000482000464C200064462000496E6400471A
:1000A0002020004120200049462000507265004970
:1000B0006E74004F6E20004F6666002A02F0010049
:0700C0000090006001001F29
:1000C800BA93AA9300E808B906E003BF0EBD05E09D
:1000D80008BF09B7056009BFACE0B2E000E00093D3
:1000E800460296989798939810E020E030E01BD04D
:1000F80059D24FD300ED17E0FD0104AB15AB08EC66
:1001080010E006D1008F118F01E000934802FD0135
:1001180010AB11AB12AB13AB06AB17AB06AF03AF0B
:1001280000AF11AF6EC0FD0195D200830183028339
:100138000383048305830683078308952ED200234F
:1001480009F452C080EF91E0FC0155D029F00689EE
:1001580001501040068B178BACE0B2E000914502CD
:10016800102F1A9559F01A9579F01A95A9F01A9541
:10017800C9F01A95E9F01350C1F12EC0008D118D08
:10018800068B178B02E035C036D071F53DD049D0CB
:10019800929A40D003E02DC0B19B1AC0A99A3AD0D8
:1001A80004E027C028D001F5929834D005E021C09A
:1001B800B1990EC0A9988CD005E067D0FC012489BC
:1001C8003589200F311F248B358BA5D006E011C04F
:1001D80026893789232B11F0073031F49298A99892
:1001E80000E0A1DF06E001AF0AC0A99A0DD0A998E6
:1001F80000E0B8D2F9CF06891789012B08958991B3
:100208009991A991B991089505E03FD0FC01048B1B
:10021800158B0895FD0104A915A9FC01068B178B00
:100228000895AC9800E002BF0DBD0CBD71D0008BE5
:10023800018B028FAC9A0895FA93EA9398D12FB75D
:1002480067D0008911890F5F1F4F008B118B2FBF5B
:10025800099119912991E991F99118951A930A939D
:100268001FB700910A02039500930A021FBF099164
:100278001991189500E028E00695C09A00C0C0982A
:10028800B19900682A95C1F70895AA939A938A9319
:1002980080E090E0002391F0A02FC3DFAD9A13D047
:1002A800AD9811D0AB98E6DFE5DFE4DFAB9A102F0D
:1002B800110F110B800F911FAA9579F78C01899165
:1002C8009991A99108950AE60A95F1F700C0089551
:1002D8009A938A93AB98CEDF902FCCDF802FCADF1A
:1002E800102F110F110B14D0028B138BAB9A60894E
:1002F800718902B79487058766877787728D0CB5F1
:100308001DB5808701871287738789919991089510
:10031800E0EFF1E008954CD440D1A297989B04C037
:10032800EBD106A917A902C001E010E008871987D8
:1003380009D10A8F1B8F2C8F2D8F2E8F2F8F28A3DB
:1003480029A322D106D45A96ADDC0A8B1B8B2C8BA1
:100358003D8B4E8B5F8B688F798FA0E6B1E0A2DC76
:10036800EED3D6DF048515852685378540910B02A7
:100378004423C2D129F000A711A722A733A704C09C
:1003880004A715A726A737A7DFD34A934A934A930A
:10039800ECD0A8E6B1E0219614D4C0D090914602E2
:1003A80000914A020023D9F09330C9F09430B9F093
:1003B800AFDF42895389652F60D1448955895195AA
:1003C80041955040652F660F660B762F3FDCBCD3F6
:1003D800A0D0C7D0FE013896BBD021DD9FD000E069
:1003E8008BD1A3DE933021F0943011F0923041F597
:1003F800CBD08FD0C0D0A0E7B1E054DCDE010ADD5D
:100408000A8F1B8F2C8F3D8F4E8F5F8F68A379A328
:1004180099D00A8B1B8B2C8B2D8B2E8B2F8B288F97
:10042800298F0A8D1B8D2C8D3D8D4E8D5F8D68A17A
:1004380079A1A0E6B1E072DCDE0152966FDC3BC028
:100448006DD3D9F18ED084D01CDDB9F15FD3E0E84B
:10045800F1E017DD24F4A8E8B1E069D02CC0E0E9A8
:10046800F1E00FDD34F4A8E9B1E061D0A0EAB1E031
:1004780021C0E8EAF1E005DD34F4A0EBB1E057D0A3
:10048800A8E6B1E017C0E8EBF1E0FBDC34F4A0EC3F
:10049800B1E04DD0A0ECB1E00DC0E8ECF1E0F1DC4A
:1004A80024F445D0A0EBB1E005C0A0EAB1E03FD00C
:1004B800A8E9B1E0F7DB20D199D15ED37096E1DCF1
:1004C8001CF48F0119D122D017D162D044855585EB
:1004D80066857785D6DC1CF404E112E017D04CD38E
:1004E80017DFAEDC09D1008F118F228F338F448F35
:1004F800558F668F778F00AD002329F03FD374D1D5
:10050800FBD058D100AFA2967ADEF7C248E050E09F
:10051800BECB15D04D834E834F8308950A871B8722
:100528002C873D874E875F87688B798B0895BADB68
:1005380006D05D836E837F83DE011A966BCCBDD2B5
:100548004C83089508851985212F220F220B0895C1
:1005580021961991299139914991599169917991E6
:10056800089509D07A936A935A934A933A932A93AF
:100578001A930A9308950A851B852C853D854E8517
:100588005F85688979890895E0EFF1E001D0DCC2E0
:1005980000851185228533850895BA93AA939A9385
:1005A8008A930895BA93AA93289700904802002046
:1005B80049F0EBE4F2E0402D01931193219331933C
:1005C8004A95D1F740E040934902088249834A831B
:1005D8004B834C834D834E834F83BAD202D02896E7
:1005E80010CE60DBECE0F2E000A311A322A333A35A
:1005F80044A355A366A377A308951B2F2A2F7CD065
:1006080002AF033011F4969A05C00430969811F49D
:10061800979A01C09798939800E01CD050E085DD28
:1006280004AD002349F0ABE4B2E0402F5D935D9345
:100638005D935D934A95D1F7DF01DD965C9350A3F6
:1006480051A352A353A354A355A356A357A3A22F10
:10065800B12F089504A705A706A707A700A701A714
:1006680002A703A70895A801612F07D044EF51E01E
:100678003BD242D004AB15AB0895660F660B08EE6B
:1006880013E02224169F302D069F300D159F202D34
:10069800310D069F200D311D149F102D210D321D87
:1006A800059F100D211D321D049F002D110D221DC7
:1006B800321D0895002311F401E003C0053608F047
:1006C80004E600934802002351F0EBE4F2E0402FE7
:1006D80000E001930193019301934A95D1F700E05B
:1006E8000093490209D000A301A302A303A304A312
:1006F80005A306A307A30895ECE0F2E00895FCDF44
:1007080000AB11AB22AB33AB0895013020E01207E8
:1007180014F401E010E0F0DF06AB17AB0895009386
:100728004A0208950F7011F401E003C0083008F080
:1007380007E00093470208959298A99800E012C034
:1007480000914602053069F410910B0201E0102770
:1007580010930B0219F0969A979802C09698979A58
:10076800939801E000934502089500E0D1DD068BDF
:10077800078B08E0F7CFCCDD048915894BEF5FEFD5
:100788002FCA00914502063011F401E0089500E0F7
:1007980008950D01ACE0B2E00D911D912D913D91B0
:1007A8004D915D916D917C9117971ED0FD0102D0FE
:1007B800D0010895008B118B228B338B448B558B82
:1007C800668B778B00871187228733874487558705
:1007D8006687778700E0008F018F028F038F048F71
:1007E800058F068F078F0895E0EFF1E000831183EE
:1007F8002283338344835583668377830895D8D1CE
:100808006A92CBDE6C970091470214E0019FF001D9
:10081800EE5DFF4F05911591259134914ED18824B5
:100828009924AA24BB24CC24DD24EE24FF2400919F
:100838004602002339F10A9591F0015078F00350EF
:1008480008F151F10A9509F46EC00A9509F471C0CE
:100858000A9509F478C00A9509F47FC087C04CDF6F
:1008680000A911A922A933A96FD1542F642F742F7D
:10087800A8E8B1E017DA7AD159876A877B877CD1F3
:100888004AD155C039DF80809180A280B380C4806E
:10089800D580E680F7806AC02FDF80A591A5A2A544
:1008A800B3A5082F092B0A2B0B2B09F464C004A548
:1008B80015A526A537A5402F412B422B432B09F41C
:1008C8005AC0080F191F2A1F3B1F4801590142E04F
:1008D80050E00AD143D14B2F440F440B4A934A931B
:1008E8004A934A935ADEA0EDB1E009916AD1FFD04C
:1008F800598F6A8F7B8FCB2CCC0CCC088C869D862D
:10090800AE86BF86C88AC98ACA8ACB8A0C891D89DD
:100918002E893F89488D598D6A8D7B8DFCD0DE01EB
:100928001C9678DA04C028D1A8EDB1E0BBD907D16C
:100938001DC0E2DE80849184A284B384C484D584FB
:10094800E684F78413C0D8DE80889188A288B388AB
:10095800C488D588E688F78809C0CEDE808C918C5B
:10096800A28CB38CC48CD58CE68CF78CD7D01CF4B5
:100978000ED166DA02C00BD152DAD4D0E0D0C6D09C
:10098800E0EEF1E07EDA34F00FEF802E902EA02E0C
:100998000FE709C0E8EEF1E074DA34F401E0802EE4
:1009A8009924AA2400E8B02E88829982AA82BB8260
:1009B8006090480202E0601608F47AC0009149028B
:1009C80014E0019FABE4B2E0A00DB11D0D911D91A3
:1009D8002D913C911397C2D082D0B6D088D0498F40
:1009E8004A8F4B8F89DE00A111A122A133A144A116
:1009F80055A166A177A1FE01349622DA97D0FE01AF
:100A080074960DDAEFDD5ED0FD010082118222823C
:100A18003382862C869499248C8259D06C8A9D8A3C
:100A28009E8A9F8A988E998E9A8E9B8E74D07AD041
:100A3800C801D90161DE05AD039505AF061508F0BB
:100A480095AE40E150E060E070E0082FFFD8AC01BF
:100A5800BD01400F511F621F731F34D0401551054F
:100A6800620573055CF0AC01BD01401B510B620BC4
:100A7800730B0416150626063706B4F4EBE4F2E009
:100A8800062D488159816A817B81419351936193F5
:100A980071930A95B1F7909249026C8218D01FD0D1
:100AA80057D014969EDD04C088839983AA83BB839C
:100AB80016D06C96A4DB699020C0088319832A831A
:100AC8003B830895088019802A803B8008959D8281
:100AD8009E829F82988699869A869B860895088129
:100AE80019812A813B81089560E070E0AFC80C8BC2
:100AF8001D8B2E8B3F8B488F089589909990A990D4
:100B0800B990C990D990E990F99008958401950118
:100B1800A601B7010895FE01349681C9F7DFE8E719
:100B2800F1E0AFC903D0DE01549674C90C871D8764
:100B38002E873F87488B598B6A8B7B8B089548019A
:100B480059016A017B010895432F440F440B08950E
:100B5800FBDF542F642F742FDE010895432F440FB9
:100B6800440B04D049874A874B8708950C831D831B
:100B78002E833F8348870895ECE0F2E000811181DD
:100B8800228133814481558166817781089542E0CD
:100B980050E060E070E0A3DF59D8E0DFA0DFD4DFE9
:100BA800A6DF498F4A8F4B8FB1DFFE013496089537
:100BB800FA92EA92DA92CA92BA92AA929A928A928D
:100BC8000895C7DC6FC80C01FA016AE070E0719300
:100BD8006A95E9F780E2932F990F90E0991F000F2B
:100BE800111F221F331FFA0139967AE06081660FC0
:100BF800692B90E06A3010F06A5F91E06F70608353
:100C080031977A9599F78A9531F7C0010895A7D158
:100C180055C05A924A92FED0ABEDB3E08091F503ED
:100C28000DE00093F5032091DB030091DC0306340B
:100C380081F00237F1F0265461F02A9571F02A9577
:100C480061F0245051F0245041F0225061F02451B9
:100C580081F402E410E059D012C006E410E066D036
:100C680071F01ED0FCCF0AE410E060D041F018D03B
:100C7800FCCF0EE410E001C013D058D0E9F701E032
:100C88009BD12D0190E1F20101912F0198D19A9504
:100C9800D1F78093F5032AD7B8D049905990089591
:100CA8002BD048F4F0E0E22FE552FC4F4083FD01E1
:100CB800228D2395228F0F5F1F4F089534D000E1B6
:100CC80010E211930A95E9F700E00093F503A1CF2C
:100CD800002311F401E003C0013108F000E10A9596
:100CE8000093F503089508D030F40AD000831BD090
:100CF800028D0395028F08952091F5032031089500
:100D0800F0E0E22FE552FC4F08950AC0F5DF30F419
:100D1800F7DF408308D0228D2395228F0F5F1F4F66
:100D280005D0A1F70895EBEDF3E00895F80144919B
:100D3800442308956FD0902FA12F8A019B01B0E022
:100D48009A95AA95892F8395772342F41095209533
:100D5800309501951F4F2F4F3F4FB1E04BEE53E0B9
:100D680032DF20E0EBEEF3E004C00191002321F430
:100D780023952917D0F3A9F0292F9A3050F490E041
:100D8800D2DFE80FF91F0DE20193839523952A30EE
:100D9800D8F32A17D1F50EE2F0E0E82FB3DF00838D
:100DA80034C030E2292F9A3080F50BEE13E050E082
:100DB800090F151FF8015081BB2369F0303259F42F
:100DC800552311F42A1759F44DE2F0E0E82FE652C2
:100DD800FC4F408302C0303221F4552311F42A1706
:100DE80011F4352F305DE82FF0E08CDF30838395E8
:100DF8002A1731F44EE2E82FF0E084DF4083839530
:100E080023950F5F1F4F2A30A8F289919991A991D4
:100E1800B9910895BA93AA939A938A930895F0E0A2
:100E2800E02F70DF0081089500E00093F803089533
:100E3800002309F45DC0E6EFF3E00581002311F01B
:100E48000A95058300811181012B29F00081015049
:100E58001040008311830FEE28E04BD0B299016057
:100E68002A95D9F700950F700A9581F00A9561F0D7
:100E7800025041F0025021F0025051F405E009C03F
:100E880004E007C003E005C002E003C001E001C0C0
:100E980000E013810117A1F01481011721F00483E8
:100EA80004E6058308951581112311F5002329F01F
:100EB80020E436E0208331830283038300E010C0FE
:100EC800208131812130304099F41681103150F45D
:100ED8000064028308E611E000831183068103950C
:100EE800068308950068028308E710E000831183F1
:100EF8000895C59807FB16F4C49A01C0C498000F5A
:100F0800C59A08950093F80308950091F80310E036
:100F18001093F803089515E0C59804FB16F4C49AD5
:100F280001C0C498000FC59A1A95B1F7C39AC49A1C
:100F380008E00A95F1F700C0C39808958A93802FB6
:100F480002950F7043D08F7047C0202F212B31F0AE
:100F58002AD001501040202F212BD1F70895C39893
:100F680014D016D000E3EADF00E000C00A95E9F7E4
:100F78000FD000E209D008E207D00CE00ED006E05E
:100F88000CD001E006D00AC0D9DF0FE010E0DDCFB9
:100F980000E3D4DF05E010E0D8CFD0DF0FE003D0C6
:100FA8000A95E9F708952FE73CE021503040E9F72A
:100FB80000C00000A89508950A950068BFCF8A93DD
:100FC800802F0295006102D0806106C0A4DF0AE28A
:100FD8000A95F1F700C00895082F9DDF05ED0A95E1
:100FE800F1F700008991089512D017D023D068D85E
:100FF8005DD078942CD00093FE03A0D80091FE0316
:10100800B3D00091FE030023A9F3A895F3CFA895C8
:1010180008E101BD0EE001BD089509E307BB0EEF2D
:1010280008BB0EE304BB0DE505BB0EEC01BB03E3F7
:1010380002BB08950CE005BD03E603BD00E808BF48
:1010480009B7006809BF01E00093FD0308951FB7C1
:10105800F8940091FD03002300E019F00093FD03CC
:1010680001E01FBF0895FA93EA932A931A930A930B
:101078002FB701E00093FD030091180410911904A3
:10108800012B69F0AA9B02C0AA9809C0AA9AE8E1B4
:10109800F4E00081118101501040008311832FBFBB
:1010A800099119912991E991F9911895DCD2AFDD4F
:1010B800B4D4BADE56D180E090E016D2E9F097D4E5
:1010C80008EE13E0FD010087118701E0068B00E0C0
:1010D80010E0A7D1139701E002871387078BB1D1DE
:1010E8000D96AC011AE005E04BD54F5F5F4F1A959E
:1010F800D9F70093130420C0F4D1602F79D4EED12E
:10110800FD0100871187E7D1068BAC0127D50D9328
:101118001D932D933C9313970896AC011AD502871B
:101128001387D6D1078B70E040E050E0460F571F79
:10113800435F5F4F0BD5048BF7D25FDAFD01008563
:10114800118591DABCD3B2D33C911397D8DAFD015B
:1011580002851385DADA00911604E1DA45D46CD1F8
:10116800D4D001E06CD0A6C382D28A93802F5FD4FA
:10117800082F5EDEF6D0882331F064D021F0149673
:101188000D9116D41497C1DE49D106FF02C001E0C3
:1011980001C000E000930F041F960C9107FF02C0E6
:1011A80001E001C000E0009310040C910F730C9350
:1011B80019F023D009F4A1D410910B0400910C0468
:1011C800101711F001E001C000E01A9539F01A95E6
:1011D80039F01A9539F01A9539F007C014D005C0BE
:1011E80037D003C097D001C0BFD007D021F48AD030
:1011F800002309F08CD48991A5C000910F041091A7
:101208001004012B0895A9D051F002E510E07DDD0E
:1012180000DD73D408E813E1149697D003C012D008
:1012280009F40BD06FD0002339F000E014960D9329
:101238000C9363D4F2D002D085C05FD402E000934F
:101248000B04089514960D911C911597012B089580
:1012580084D049F069D24ED104EF11E0149633D30B
:1012680000910B040FC000911104002369F014963B
:1012780013D3012B49F41091120401E010271093A5
:10128800120400E000930C047CDA002309F0D5D0A6
:1012980039D0013061F400911104002300E019F005
:1012A80034D0CAD02CC000930D0404E027C0053008
:1012B80079F41091110401E0102710931104109390
:1012C800120411F039DA02C064DA3ADAB6D018C07A
:1012D8000023B9F02CD20023A1F086D30091130487
:1012E8004DE050E02091140430E0420F531F48D4E1
:1012F80030930C0407D0043011F403E0A0DF00E0C1
:101308008DD020C000910E0408950093110400931D
:101318001204089522D081F0D1DC54960C91509794
:1013280007FF03C00DE510E002C008E610E0EDDCA1
:1013380070DC00EA1FE009D070D01496ADD2012B02
:1013480009F47BDFA991B99108950D931C93159722
:1013580000910B0400930C04089589D102D0002356
:101368000895AFEFB3E00895F8DF69F0E5D952D0FA
:1013780081D150D0053031F4F8D908E512E014963F
:10138800A2D21597E5DF46D0053039F45BDF29F4A2
:10139800F2D9169698D2179750D0B4DF013041F49D
:1013A8001E960C9103950C93063061F53FD02AC028
:1013B800023021F42FD08AD2002321F5A3DF033095
:1013C80021F428D0EFD10023E9F49CDF0430E1F4C4
:1013D80010910D041A9591F01A9571F01A9541F033
:1013E8001A9591F401E010E01A966DD28ED90AC0D0
:1013F8000FD317D084D906C007D304C008EE13E072
:1014080061D231D91AD004C0053019F40FD000E0E8
:1014180005D098CF00910D04089500E000930E04C4
:1014280008950D930D930D930C9308950AD088D9C0
:1014380002E000930B04089583D900E000930C04A4
:1014480008956DD115894DD0011719F04AE050E083
:101458003DD02085318542D00217130721F046E0A0
:1014680050E0890191D3168936D0011719F04BE065
:1014780050E02CD040E050E071D3008011802280F1
:101488003380001511052205330529F080019101EB
:1014980040E050E080D32285338548E050E059D3BE
:1014A8000217130721F048E050E089016DD317892E
:1014B8000FD0011719F04CE050E008D015D029F0F2
:1014C8000AED1EEB44E050E05FD30895012F58C3A6
:1014D8004CE050E03BC34BE050E038C346E050E0FE
:1014E80038C34AE050E032C344E050E032D30A3D0A
:1014F8001E4B0895FA92EA92DA92CA927A926A9206
:101508005A924A92B0D0802FD9DB813019F406E67E
:10151800EADB04C004E0809FFDD0F7DB70D9C80186
:10152800D9012FD9002309F00BD9109113041F7783
:101538001E5FFAD0035028F0025019F00A9591F076
:101548001FC003E020E8422E26E9522E28E9622E29
:1015580077242FEFC22E20EED22E25EFE22E25E0A3
:10156800F22E1DC005E020EA422E26E8522E21E088
:10157800622E77242FE3C22E22E4D22E2FE00DC054
:1015880004E020E4422E22E4522E2FE0622E77243B
:101598002FE7C22E26E9D22E28E9E22EFF24209139
:1015A8001204222319F4AC01BD01C4DB32DBB7D02D
:1015B800048907FF4EC0BB236AF084159505A6056C
:1015C800B70514F402E0B3D0C816D906EA06FB063C
:1015D800DCF51BC0509460947094419457086708D8
:1015E8007708481659066A067B0614F402E09FD06D
:1015F800D094E094F0940FEFC194D00AE00AF00A76
:101608008C159D05AE05BF05FCF410911304012F40
:101618000F770395083008F007E020911404235051
:1016280040F0225031F02A9541F4033048F403E0A9
:1016380007C0002329F401E003C0023008F402E0E7
:10164800101711F0009313046AD004890068048B02
:1016580069D830D14990599069907990C990D990BA
:10166800E990F990089503D09A938A930895BA93CC
:10167800AA9308958A93802F21DB0BE910E024E0D8
:10168800829F000D111D41DB882359F08A9581F056
:101698008A9591F08A95B1F08A95D9F08A9501F1E9
:1016A80031C005E015DB40D014E0019F33D01EC0E7
:1016B80036D04085518510C04091150450E060E057
:1016C80070E00BC02CD0408151816281738119E098
:1016D80005C025D04285538518D010E005E011C01B
:1016E80005E0F6DADCD021F407EB10E00EDB0AC0E7
:1016F80003EB10E00ADB13D04681578106D010E0D7
:1017080007E018DB86DA89910895652F660F660B66
:10171800762F089503E710E0000D111D0895EFEFEF
:10172800F3E00895A4E1B4E0009114040895102FA3
:10173800F6DF4489042F0F7747FF02C021E001C07C
:1017480020E0123019F420E00A9509C0133019F48A
:1017580020E0039504C0143011F411E0212708306B
:1017680008F007E01589135028F0125019F01A955F
:1017780029F008C0002349F401E007C0033028F429
:1017880003E003C0023008F402E0222311F020E84D
:1017980001C020E0022B401711F400E00895048BEB
:1017A80001E0089560DF002371F00A95A9F00A9519
:1017B800A9F10A9509F446C00A9509F454C00A9596
:1017C80009F460C065C0AEDF093018F403950C93C6
:1017D80001C00DD1FDD05AC05DD01997003127E264
:1017E80012070CF055C0043120E0120739F0083C0C
:1017F800120721F0003D27E0120759F4C801880FAD
:10180800991F42E0D3D0800F911F18968D939C9317
:1018180003C0000F111F56D0D0D038C00091150456
:101828000436B0F5023011F0043139F4102F110FDD
:101838000695100F1093150403C0000F00931504AC
:101848003ED024C0D8D00F3312442F4040E0340794
:10185800FCF429D011F40F5F01C00C591F4F2F4F12
:101868003F4FB0D013C0A9E0B4E016D01B97083E94
:1018780023E012076CF41B960F5F1F4F1C930E9307
:1018880044D704C00CD021F401E08DD001E001C0A0
:1018980000E010C0A7E0B4E00D911C9108950091FC
:1018A8001604002308950091100400230D911D9142
:1018B8002D91089589919991A991B99108950091CF
:1018C8001504F8C618960D931C930895D0DE0023CE
:1018D80069F00A95A9F00A9571F10A95F9F10A9546
:1018E80009F44DC00A9509F456C05BC01BDF0023FC
:1018F80019F00A950C9302C009E07AD069D04FC05C
:10190800C9DF19970B3020E012070CF44AC00233E4
:10191800120741F0043F21E0120721F0083823E1C3
:10192800120721F4000F111F45E001C042E03ED02C
:10193800C9DF43D034C000911504023090F105305E
:1019480011F0023331F412E0019F800145E02ED0FE
:1019580001C0069500931504B2DF21C04CD0023CAB
:101968001D4B204F4FEF3407E4F09DDF11F4015079
:1019780001C0045610402040304024D010C0A9E0D7
:10198800B4E0ED91FC911B9732975CF01A9684DFD6
:101998000FD0BBD604C083DF21F000E004D001E003
:1019A80001C000E0CFCC00931604B9C650E018C1BE
:1019B800015010401C930E930895199718960D9195
:1019C8001C9151C63C932E931E930E9318D097C624
:1019D800209114044DE050E010E0420F511FB6D0A2
:1019E80000931304022F09D6009113049BC600E04C
:1019F800009314040895B5DC02D0139708950D914F
:101A08001D912D913C91089501E00093150452C653
:101A180000E010E020E030E0089509E209B900E0B4
:101A280000BD08E90AB902E10093170408950023EC
:101A380021F100911704002331F401E0F5DF00E003
:101A4800EED90CB908950231C0F45E9B16C000E4CB
:101A58000BB900911704003121F40DE00CB901E134
:101A680005C0013121F40AE00CB902E1DDCF102FE5
:101A7800139510931704D3D90CB908958A93FA9340
:101A8800EA933A922A921A920A927A936A935A930A
:101A98004A933A932A931A930A938FB71CB100E09A
:101AA800115479F0135059F0175069F0125019F089
:101AB800185019F009C001E007C003E005C002E0B2
:101AC80003C004E001C005E01DDA8FBF0991199138
:101AD8002991399149915991699179910990199070
:101AE80029903990E991F9918991189500911704F5
:101AF800023111F400E098DF08952FB7F89404E656
:101B080010E0E8E1F4E0008311832FBF08952FB7B8
:101B1800F8940CE211E0F5CF00008895FECF0FE5B0
:101B28000DBF01E00EBFC0EED0E0BCD1002309F02C
:101B3800C9D15ADAF1DFF0CFE199FECF08954F5FAE
:101B48005F4FFADF4EBB5FBBE09A0895FADF0DB333
:101B58000895F7DF0DB3F3DF1DB30895F2DF0DB37A
:101B6800EEDF1DB3ECDF2DB3EADF3DB308954F5F21
:101B78005F4F4EBB5FBBF894E29AE19A0FBE08959F
:101B88000FB6DADF0DBBF5CF0FB6D6DF0DBBF1DF31
:101B9800D3DF1DBBECCF0FB6CFDF0DBBEADFCCDF49
:101BA8001DBBE5DFC9DF2DBBE2DFC6DF3DBBDFCFF5
:101BB80000241124EFE0001F111F001C111C041643
:101BC800150610F0041A150AEA95AAF7001F111F46
:101BD800A00100951095089551954195504008959C
:101BE800FF27552312F4F160F7DF112312F4F09563
:101BF80006D0DEDFF0FD03D0F1FDEECF089511959C
:101C0800019510400895002411241001E0E2EA959E
:101C180092F0001F111F221F331F001C111C221CD1
:101C2800331C041615062606370688F3041A150A07
:101C3800260A370AECCF001F111F221F331FA001ED
:101C4800B10100951095209530950895FF277723C9
:101C580012F4F16014D0332312F4F09508D0D3DFD6
:101C6800F69508F404D0F69508F409C0089530955F
:101C78002095109501951F4F2F4F3F4F0895709550
:101C88006095509541955F4F6F4F7F4F0895AF9383
:101C9800BF93D80101900D9241505040D9F7BF91A0
:101CA800AF9108958A939A934A925A926A92AA9304
:101CB800BA930024112410012001F00188E06D90EE
:101CC80098E0662049F4762F652F542F432F322F42
:101CD800212F102F002714C0669440F4000E111E07
:101CE800221E331E441E551EE61FF71F000F111F2C
:101CF800221F331F441F551F661F771F9A9561F7D0
:101D08008A95E9F680019101A201BF01B991A991D3
:101D180069905990499099918991089502D02DD050
:101D28000EC04A928A939A93AA93BA938D914D9032
:101D3800ED91FD910D901D902D903C900895099185
:101D48001991299139914991599169917991001F76
:101D5800111F221F331F441F551F661F771F009531
:101D68001095209530954095509560957095B9914E
:101D7800A99199918991499008950F931F932F9351
:101D88003F934F935F936F937F9300271127980199
:101D9800A801B801B7E0A8E09F91AA95DAF0991FC9
:101DA800001F111F221F331F441F551F661F771F57
:101DB800081714052E073F074005510562057305EE
:101DC80060F3081B14092E0B3F0B400951096209E7
:101DD8007309E3CF9A93A8E0BA95EAF60895A1DFCC
:101DE800992733208AF491604094E095F095009407
:101DF8001094209430948195BFEF4B0AEB0BFB0BAA
:101E08000B0A1B0A2B0A3B0A772312F4909529D058
:101E180090FBB3CFE4DF93DF0EF423D008958081E5
:101E2800080F8181181F8281281F8381381F8481B0
:101E3800481F8581581F8681681F8781781F0895EC
:101E48008081081B8181180B8281280B8381380BC4
:101E58008481480B8581580B8681680B8781780BB4
:101E680008951095209530954095509560957095FA
:101E780001951F4F2F4F3F4F4F4F5F4F6F4F7F4F72
:101E88000895808108178181180782812807838136
:101E980038078481480785815807868168078781C4
:101EA8007807089501E0089520E006D0E9F708953D
:101EB800259102D0E9F708952D9301501040202F65
:101EC800212B08958BEB90E0FC0105911491FC0106
:101ED8003296A591B491FC01349625913491422F04
:101EE800432B19F0F901E4DF01C0DEDF069610E0AC
:101EF800873C910748F308950050C3000000000094
:101F0800640000000000000000E1F505000000008A
:101F18000000000000000000F65AD07B63080000B3
:101F280040420F0000000000A38D23D6E2530000BA
:101F3800A0860100000000000A0000000000000068
:101F48006588635DDC460300102700000000000080
:101F5800F753E3A59BC42000E8030000000000003D
:101F6800AE47E17A14AE4701809698000000000061
:101F780060EA00000000000000000080000000008F
:081F880001000080FFFFFFFFD4
:00000001FF
:00000001FF
