:10000000ABCD189518952EC8189518951895189574
:1000100029C116C1189565CD18951895189518958C
:10002000189518951895010000000A00000064005A
:100030000000E803000010270000A08601004042F5
:100040000F006B487A006D53200072706D00202005
:100050002000202046432D353130202000204175DE
:10006000746F204F6E202000204175746F204F4622
:100070004620004620200050202000484920004C07
:100080004F200044202000526F7400464820004654
:100090004C200064462000496E6400472020004147
:1000A0002020004946200050726500496E7400000F
:1000B0000000004F6E20004F6666002E02F0010027
:0700C0000090006001321FF7
:1000C800BA93AA9300E808B906E003BF0EBD05E09D
:1000D80008BF09B7056009BFACE0B2E000E00093D3
:1000E800460296989798939810E020E030E01BD04D
:1000F80059D24FD300ED17E0FD0104AB15AB08EC66
:1001080010E006D1008F118F01E000934802FD0135
:1001180010AB11AB12AB13AB06AB17AB06AF03AF0B
:1001280000AF11AF6EC0FD0195D200830183028339
:100138000383048305830683078308952ED200234F
:1001480009F452C080EF91E0FC0155D029F00689EE
:1001580001501040068B178BACE0B2E000914502CD
:10016800102F1A9559F01A9579F01A95A9F01A9541
:10017800C9F01A95E9F01350C1F12EC0008D118D08
:10018800068B178B02E035C036D071F53DD049D0CB
:10019800929A40D003E02DC0B19B1AC0A99A3AD0D8
:1001A80004E027C028D001F5929834D005E021C09A
:1001B800B1990EC0A9988CD005E067D0FC012489BC
:1001C8003589200F311F248B358BA5D006E011C04F
:1001D80026893789232B11F0073031F49298A99892
:1001E80000E0A1DF06E001AF0AC0A99A0DD0A998E6
:1001F80000E0B8D2F9CF06891789012B08958991B3
:100208009991A991B991089505E03FD0FC01048B1B
:10021800158B0895FD0104A915A9FC01068B178B00
:100228000895AC9800E002BF0DBD0CBD71D0008BE5
:10023800018B028FAC9A0895FA93EA9398D12FB75D
:1002480067D0008911890F5F1F4F008B118B2FBF5B
:10025800099119912991E991F99118951A930A939D
:100268001FB700910A02039500930A021FBF099164
:100278001991189500E028E00695C09A00C0C0982A
:10028800B19900682A95C1F70895AA939A938A9319
:1002980080E090E0002391F0A02FC3DFAD9A13D047
:1002A800AD9811D0AB98E6DFE5DFE4DFAB9A102F0D
:1002B800110F110B800F911FAA9579F78C01899165
:1002C8009991A99108950AE60A95F1F700C0089551
:1002D8009A938A93AB98CEDF902FCCDF802FCADF1A
:1002E800102F110F110B14D0028B138BAB9A60894E
:1002F800718902B79487058766877787728D0CB5F1
:100308001DB5808701871287738789919991089510
:10031800E0EFF1E008954AD440D1A297989B04C039
:10032800EBD106A917A902C001E010E008871987D8
:1003380009D10A8F1B8F2C8F2D8F2E8F2F8F28A3DB
:1003480029A322D104D45A96C6DC0A8B1B8B2C8B8A
:100358003D8B4E8B5F8B688F798FA0E6B1E0BBDC5D
:10036800ECD3D6DF048515852685378540910B02A9
:100378004423C2D129F000A711A722A733A704C09C
:1003880004A715A726A737A7DDD34A934A934A930C
:10039800ECD0A8E6B1E0219612D4C0D090914602E4
:1003A80000914A020023D9F09230C9F09330B9F095
:1003B800AFDF42895389652F60D1448955895195AA
:1003C80041955040652F660F660B762F58DCBAD3DF
:1003D800A0D0C7D0FE013896BBD03ADD9FD000E050
:1003E8008BD1A3DE923021F0933011F0913041F59A
:1003F800CBD08FD0C0D0A0E7B1E06DDCDE0123DD2B
:100408000A8F1B8F2C8F3D8F4E8F5F8F68A379A328
:1004180099D00A8B1B8B2C8B2D8B2E8B2F8B288F97
:10042800298F0A8D1B8D2C8D3D8D4E8D5F8D68A17A
:1004380079A1A0E6B1E08BDCDE01529688DC3BC0F6
:100448006BD3D9F18ED084D035DDB9F15DD3E0E836
:10045800F1E030DD24F4A8E8B1E069D02CC0E0E98F
:10046800F1E028DD34F4A8E9B1E061D0A0EAB1E018
:1004780021C0E8EAF1E01EDD34F4A0EBB1E057D08A
:10048800A8E6B1E017C0E8EBF1E014DD34F4A0EC25
:10049800B1E04DD0A0ECB1E00DC0E8ECF1E00ADD30
:1004A80024F445D0A0EBB1E005C0A0EAB1E03FD00C
:1004B800A8E9B1E010DC20D199D15CD37096FADCC0
:1004C8001CF48F0119D122D017D162D044855585EB
:1004D80066857785EFDC1CF404E112E017D04AD377
:1004E80017DFC7DC09D1008F118F228F338F448F1C
:1004F800558F668F778F00AD002329F03DD374D1D7
:10050800FBD058D100AFA2967ADEF5C248E050E0A1
:10051800D7CB15D04D834E834F8308950A871B8709
:100528002C873D874E875F87688B798B0895D3DB4F
:1005380006D05D836E837F83DE011A9684CCBBD29E
:100548004C83089508851985212F220F220B0895C1
:1005580021961991299139914991599169917991E6
:10056800089509D07A936A935A934A933A932A93AF
:100578001A930A9308950A851B852C853D854E8517
:100588005F85688979890895E0EFF1E001D0DAC2E2
:1005980000851185228533850895BA93AA939A9385
:1005A8008A930895BA93AA93289700904802002046
:1005B80049F0EBE4F2E0402D01931193219331933C
:1005C8004A95D1F740E040934902088249834A831B
:1005D8004B834C834D834E834F83B8D202D02896E9
:1005E80010CE79DBECE0F2E000A311A322A333A341
:1005F80044A355A366A377A308951B2F2A2F7CD065
:1006080002AF023011F4969A05C00330969811F49F
:10061800979A01C09798939800E01CD050E085DD28
:1006280004AD002349F0ABE4B2E0402F5D935D9345
:100638005D935D934A95D1F7DF01DD965C9350A3F6
:1006480051A352A353A354A355A356A357A3A22F10
:10065800B12F089504A705A706A707A700A701A714
:1006680002A703A70895A801612F07D044EF51E01E
:1006780039D242D004AB15AB0895660F660B08EE6D
:1006880013E02224169F302D069F300D159F202D34
:10069800310D069F200D311D149F102D210D321D87
:1006A800059F100D211D321D049F002D110D221DC7
:1006B800321D0895002311F401E003C0053608F047
:1006C80004E600934802002351F0EBE4F2E0402FE7
:1006D80000E001930193019301934A95D1F700E05B
:1006E8000093490209D000A301A302A303A304A312
:1006F80005A306A307A30895ECE0F2E00895FCDF44
:1007080000AB11AB22AB33AB0895013020E01207E8
:1007180014F401E010E0F0DF06AB17AB0895009386
:100728004A0208950F7011F401E003C0083008F080
:1007380007E00093470208959298A99800E012C034
:1007480000914602043069F410910B0201E0102771
:1007580010930B0219F0969A979802C09698979A58
:10076800939801E000934502089500E0D1DD068BDF
:10077800078B08E0F7CFCCDD048915894BEF5FEFD5
:1007880048CA00914502063011F401E0089500E0DE
:1007980008950D01ACE0B2E00D911D912D913D91B0
:1007A8004D915D916D917C9117971ED0FD0102D0FE
:1007B800D0010895008B118B228B338B448B558B82
:1007C800668B778B00871187228733874487558705
:1007D8006687778700E0008F018F028F038F048F71
:1007E800058F068F078F0895E0EFF1E000831183EE
:1007F8002283338344835583668377830895D6D1D0
:100808006A92CBDE6C970091470214E0019FF001D9
:10081800EE5DFF4F05911591259134914CD18824B7
:100828009924AA24BB24CC24DD24EE24FF2400919F
:100838004602002391F0015078F0035008F151F17D
:100848000A9509F46EC00A9509F471C00A9509F46D
:1008580078C00A9509F47FC087C04EDF00A911A9A6
:1008680022A933A96FD1542F642F742FA8E8B1E0BF
:1008780032DA7AD159876A877B877CD14AD155C0C9
:100888003BDF80809180A280B380C480D580E680E1
:10089800F7806AC031DF80A591A5A2A5B3A5082F6E
:1008A800092B0A2B0B2B09F464C004A515A526A552
:1008B80037A5402F412B422B432B09F45AC0080F70
:1008C800191F2A1F3B1F4801590142E050E00AD175
:1008D80043D14B2F440F440B4A934A934A934A936C
:1008E8005CDEA0EDB1E009916AD1FFD0598F6A8F23
:1008F8007B8FCB2CCC0CCC088C869D86AE86BF8695
:10090800C88AC98ACA8ACB8A0C891D892E893F89D7
:10091800488D598D6A8D7B8DFCD0DE011C9693DA4B
:1009280004C028D1A8EDB1E0D6D907D11DC0E4DEB6
:1009380080849184A284B384C484D584E684F784B3
:1009480013C0DADE80889188A288B388C488D588E5
:10095800E688F78809C0D0DE808C918CA28CB38C95
:10096800C48CD58CE68CF78CD7D01CF40ED181DAE8
:1009780002C00BD16DDAD4D0E0D0C6D0E0EEF1E001
:1009880099DA34F00FEF802E902EA02E0FE709C0D1
:10099800E8EEF1E08FDA34F401E0802E9924AA24FD
:1009A80000E8B02E88829982AA82BB8260904802B1
:1009B80002E0601608F47AC00091490214E0019F31
:1009C800ABE4B2E0A00DB11D0D911D912D913C91AC
:1009D8001397C2D082D0B6D088D0498F4A8F4B8F18
:1009E8008BDE00A111A122A133A144A155A166A1CA
:1009F80077A1FE0134963DDA97D0FE01749628DA85
:100A0800F1DD5ED0FD010082118222823382862CC4
:100A1800869499248C8259D06C8A9D8A9E8A9F8A52
:100A2800988E998E9A8E9B8E74D07AD0C801D901EF
:100A380063DE05AD039505AF061508F095AE40E1F8
:100A480050E060E070E0082F1AD9AC01BD01400FFA
:100A5800511F621F731F34D040155105620573057D
:100A68005CF0AC01BD01401B510B620B730B04160B
:100A7800150626063706B4F4EBE4F2E0062D4881A5
:100A880059816A817B8141935193619371930A954E
:100A9800B1F7909249026C8218D01FD057D01496A3
:100AA800A0DD04C088839983AA83BB8316D06C9683
:100AB800A6DB699020C0088319832A833B830895A5
:100AC800088019802A803B8008959D829E829F829B
:100AD800988699869A869B860895088119812A8125
:100AE8003B81089560E070E0CAC80C8B1D8B2E8B8B
:100AF8003F8B488F089589909990A990B990C99093
:100B0800D990E990F990089584019501A601B7015B
:100B18000895FE0134969CC9F7DFE8E7F1E0CAC9F9
:100B280003D0DE0154968FC90C871D872E873F8717
:100B3800488B598B6A8B7B8B0895480159016A0150
:100B48007B010895432F440F440B0895FBDF542F76
:100B5800642F742FDE010895432F440F440B04D0F3
:100B680049874A874B8708950C831D832E833F83CB
:100B780048870895ECE0F2E00081118122813381F9
:100B88004481558166817781089542E050E060E0B4
:100B980070E0A3DF74D8E0DFA0DFD4DFA6DF498FE1
:100BA8004A8F4B8FB1DFFE0134960895FA92EA928C
:100BB800DA92CA92BA92AA929A928A920895C9DC53
:100BC8008AC815E0C59804FB16F4C49A01C0C498F5
:100BD800000FC59A1A95B1F7C39AC49A08E00A9506
:100BE800F1F700C0C39808958A93802F02950F707B
:100BF80008D08F7000C0082FACD089910895029555
:100C08000061DFDF0AE20A95F1F700C00895202F9E
:100C1800212B31F04ED001501040202F212BD1F73D
:100C280008950C01FA016AE070E071936A95E9F79A
:100C380080E2932F990F90E0991F000F111F221F38
:100C4800331FFA0139967AE06081660F692B90E0CC
:100C58006A3010F06A5F91E06F70608331977A951F
:100C680099F78A9531F7C0010895C39816D018D01E
:100C780000E3BADF00E000C00A95E9F711D000E20E
:100C88000BD008E209D00CE007D006E0ADDF0CD0AD
:100C980001E007D009D063C0A7DF0FE010E0B7CFAD
:100CA80000E3A2DF05E0FACF0FE003D00A95E9F7E9
:100CB80008952FE73CE021503040E9F700C00000DC
:100CC800A89508956A925A924A929A938A93609044
:100CD800F5030DE00093F5032091DB030091DC039D
:100CE800063479F00237B1F0265459F02A9561F0AC
:100CF8002A9551F0245041F0245031F0225039F017
:100D080009C002E410E008C006E410E005C00AE4E7
:100D180010E002C00EE410E047D000E865DF8BED7C
:100D280093E000E1402EFC015190CF01052D67DFD3
:100D380000E105290ED04A94B1F76092F50320E14D
:100D48000BED13E0C2D68991999149905990699019
:100D5800089537DF05ED0A95F1F70000089536D0BC
:100D680000E110E211930A95E9F700E00093F5031A
:100D7800A9CF002311F401E003C0013108F000E11C
:100D88000A950093F50308952091F503203130F476
:100D980006D000831BD0028D0395028F0895F0E0E2
:100DA800E22FE552FC4F08950CC02091F503203145
:100DB80030F4F5DF40830AD0228D2395228F0F5F10
:100DC8001F4FF8014491442381F70895EBEDF3E0B8
:100DD8000895BA93AA939A938A93902FA12F8A0180
:100DE8009B01B0E09A95AA95892F8395772342F4C1
:100DF80010952095309501951F4F2F4F3F4FB1E02B
:100E08004BEE53E00EDF20E0EBEEF3E004C001917F
:100E1800002321F423952917D0F3A9F0292F9A301C
:100E280050F490E0D3DFE80FF91F0DE201938395AA
:100E380023952A30D8F32A17D1F50EE2F0E0E82FEF
:100E4800B0DF008334C030E2292F9A3080F50BEEF2
:100E580013E050E0090F151FF8015081BB2369F01A
:100E6800303259F4552311F42A1759F44DE2F0E0C1
:100E7800E82FE652FC4F408302C0303221F455235C
:100E880011F42A1711F4352F305DE82FF0E089DFCF
:100E9800308383952A1731F44EE2E82FF0E081DFA2
:100EA8004083839523950F5F1F4F2A30A8F28991BD
:100EB8009991A991B991089500E00093F8030895D4
:100EC8000FEE28E0C59807FB16F4C49A01C0C49831
:100ED800000FC59AB29901602A95A1F700950F7085
:100EE8000A9559F00A9559F0025059F00A9579F087
:100EF8000A9549F0025049F00CC001E0089502E05B
:100F0800089503E0089504E0089505E0089506E0D3
:100F1800089500E00895BA93AA93002309F453C0F2
:100F2800A6EFB3E00091FB03002321F015960A9584
:100F38000C9315970D911C911197012B29F00D9188
:100F4800015010401C930E93BBDF202F0091F90332
:100F58002017E1F00091FA03201731F02093FA03EB
:100F680004E60093FB032FC00091FB03002359F50F
:100F7800222331F000E416E00D931C932093F8032C
:100F88002093F90300E00093FC031DC00D911C9110
:100F98001197013030E01040B1F40091FC030031AA
:100FA80060F420642093F80308E611E00D931C9385
:100FB80015960C9103950C9306C020682093F803AE
:100FC80008E70D933C93A991B99108950093F8030C
:100FD80008950091F80310E01093F803089512D0D3
:100FE80017D023D06DD85DD078942CD00093FE0311
:100FF800A5D80091FE03C0D00091FE030023A9F3F9
:10100800A895F3CFA89508E101BD0EE001BD0895AC
:1010180009E307BB0EEF08BB0EE304BB0DE505BBF8
:101028000EEC01BB03E302BB08950CE005BD03E62B
:1010380003BD00E808BF09B7006809BF01E00093D5
:10104800FD0308951FB7F8940091FD03002300E005
:1010580019F00093FD0301E01FBF0895FA93EA9386
:101068002A931A930A932FB701E00093FD03009186
:10107800180410911904012B69F0AA9B02C0AA98C0
:1010880009C0AA9AE8E1F4E00081118101501040FA
:10109800008311832FBF099119912991E991F99141
:1010A8001895F4D2E2DD08DFD8D47FD180E090E053
:1010B80027D209F1BBD408EE13E0FD0100871187A0
:1010C80001E0068B06EB15EA2EEF3FEF4FD000E06C
:1010D800078B01E010E002871387008FB4D10E96CA
:1010E800AC0119E005E065D54F5F5F4F1A95D9F758
:1010F800009313041EC001D2602F99D4FBD1FD01C7
:1011080000871187F4D1068BAC0141D52FD0ECD1E3
:10111800078B0896AC0136D502871387E2D1008F7A
:1011280070E040E050E0460F571F425F5F4F27D501
:10113800048B0DD362DAFD010085118594DACFD3D3
:10114800FD0102851385E1DA00911704E8DA04D17C
:1011580011F0F7D004C000E010E020E030E0CFDA72
:1011680062D46CD1E9D001E072D0ABC30D931D936A
:101178002D933C93139708958DD28A93802F79D419
:10118800082FC9DE12D1882331F0E0D021F014965F
:101198000D911ED414971DDF48D106FF02C001E04F
:1011A80001C000E000930F041F960C9107FF02C0D6
:1011B80001E001C000E0009310040C910F730C9340
:1011C80019F023D009F43AD410910B0400910C04BF
:1011D800101711F001E001C000E01A9539F01A95D6
:1011E80039F01A9539F01A9539F007C014D005C0AE
:1011F80031D003C0B5D001C0DBD007D021F499D0DD
:10120800002309F025D489915EC300910F04109141
:101218001004012B0895C5D051F002E510E0C4DD9B
:1012280051DD0CD408E813E11496B3D003C08ED076
:1012380009F40BD07ED0002339F000E014960D930A
:101248000C93FCD3F1D002D03EC3F8D302E0009354
:101258000B040895A6D049F07AD258D104EF11E0D2
:10126800CAD3159700910B040DC0009111040023F7
:1012780059F06CD049F41091120401E01027109332
:10128800120400E000930C047CDA002309F0D7D0A4
:1012980050D0013061F400911104002300E019F0EE
:1012A8004BD0CCD043C000930D0404E03EC00530C1
:1012B80071F41091110401E0102710931104109398
:1012C800120411F039DA19C064DA3ADA16C00630B5
:1012D800B1F442D039F000E00093160410E020E0A9
:1012E80030E004C001E0009316042BD008DA009126
:1012F80016044CE050E05DD4E5DCA1D018C0002312
:10130800B9F028D20023A1F08ED3009113044EE047
:1013180050E02091140430E0420F531F4AD4309318
:101328000C0407D0043011F403E091DF00E07DD015
:10133800CAC200910E040895009311040093120488
:1013480008950D911D912D913C91089514960D913C
:101358001C911597012B08950091160400230895F8
:1013680020D081F0FCDC54960C91509707FF03C005
:101378000DE510E002C008E610E016DDA3DC00EA87
:101388001FE007D051D01496A3D2012B09F45DDFDA
:101398009AC20D931C93159700910B0400930C04AB
:1013A800089578D102D000230895AFEFB3E00895EF
:1013B800F8DF61F0C1D935D070D133D0063029F4C7
:1013C800D4D908E512E017D31597E6DF2AD00630FE
:1013D80039F4BCDF29F4CFD916960ED317972FD03E
:1013E800A8DF013041F41E960C9103950C93073049
:1013F80079F41ED00DC0023021F413D073D200232B
:1014080039F497DF033031F40CD0E1D1002311F027
:1014180016D005C08EDF053019F40AD000E005D0DB
:1014280052C200910D04089500E000930E0408953F
:101438000AD086D902E000930B04089581D900E010
:1014480000930C0408957ED1158957D0011719F01F
:101458004AE050E044D0208531854CD0021713076C
:1014680021F046E050E08901A8D3168940D0011741
:1014780019F04BE050E033D040E050E088D30080D2
:10148800118022803380001511052205330529F0CB
:101498008001910140E050E097D3178925D00117CA
:1014A80019F04CE050E01BD02285338548E050E02D
:1014B80069D30217130721F048E050E089017DD372
:1014C800108D0FD0011719F04DE050E008D018D05A
:1014D80029F00AED1EEB44E050E06FD30895012F88
:1014E80068C34DE050E04BC34CE050E048C34BE0CC
:1014F80050E045C346E050E045C34AE050E03FC3F2
:1015080044E050E03FD30A3D1E4B0895FA92EA9218
:10151800DA92CA927A926A925A924A92B7D0802FF5
:101528001EDC04E0809F09D13FDC882331F414DFFE
:1015380021F001E01EDC06EC27DC61D9C801D901E5
:1015480020D9002309F0FCD8109113041F771E5FDF
:10155800FED0002339F00A9529F0035019F00A95B6
:1015680091F01FC003E020E8422E26E9522E28E918
:10157800622E77242FEFC22E20EED22E25EFE22EF8
:1015880025E0F22E1DC005E020EA422E26E8522E64
:1015980021E0622E77242FE3C22E22E4D22E2FE000
:1015A8000DC004E020E4422E22E4522E2FE0622EE9
:1015B80077242FE7C22E26E9D22E28E9E22EFF242F
:1015C80020911204222319F4AC01BD0102DC7ADB5C
:1015D800B9D0048907FF50C0BB236AF0841595056C
:1015E800A605B70514F402E0B5D0C816D906EA0670
:1015F800FB06ECF51BC05094609470944194570816
:1016080067087708481659066A067B0614F402E04C
:10161800A1D0D094E094F0940FEFC194D00AE00ADE
:10162800F00A8C159D05AE05BF050CF51091130445
:10163800012F0F770395083008F007E02091140474
:10164800222351F02A9541F0235031F02A9541F494
:10165800033048F403E007C0002329F401E003C085
:10166800023008F402E0101711F0009313046AD056
:1016780004890068048B56D824D149905990699000
:101688007990C990D990E990F990089503D09A93E8
:101698008A930895BA93AA9308958A93802F5FDB5B
:1016A80007E910E024E0829F000D111D7DDB8823EF
:1016B80059F08A9581F08A9591F08A95B1F0825017
:1016C800D9F08A9501F131C005E053DB40D014E030
:1016D800019F33D01EC036D04085518510C040913F
:1016E800150450E060E070E00BC02CD040815181BF
:1016F8006281738119E005C025D04285538518D0D1
:1017080010E005E011C005E034DBE5D021F407EB7B
:1017180010E04ADB0AC003EB10E046DB13D0468139
:10172800578106D010E007E054DBCCDA89910895A0
:10173800652F660F660B762F089503E710E0000DFE
:10174800111D0895EFEFF3E00895A4E1B4E00091CE
:1017580014040895102FF6DF4489042F0F7747FFEC
:1017680002C021E001C020E0123019F420E00A95FF
:1017780009C0133019F420E0039504C0143011F4A3
:1017880011E02127083008F007E01589112339F006
:101798001A9529F0135019F01A9529F008C000235A
:1017A80049F401E007C0033028F403E003C0023025
:1017B80008F402E0222311F020E801C020E0022B07
:1017C800401711F400E00895048B01E008955EDFEE
:1017D800002371F00A95A9F00A95B1F10A9509F468
:1017E80047C0025009F457C00A9509F463C068C09D
:1017F800ACDF083018F403950C9301C017D107D15A
:101808005DC064D01997003127E212070CF058C068
:10181800043120E0120739F0083C120721F0003D9E
:1018280027E0120759F4C801880F991F42E0CED06B
:10183800800F911F18968D939C9304C0000F111F61
:101848001896DAD0CAD03AC0009115040436C0F50B
:10185800023011F0043139F4102F110F0695100FD2
:101868001093150403C0000F0093150438D026C048
:10187800E1D00F3312442F4040E034070CF5B2D0CA
:1018880011F40F5F01C00C591F4F2F4F3F4FB7D0B6
:10189800A9F0AFD013C0A9E0B4E01AD01B97083E56
:1018A80023E012076CF41B960F5F1F4F1C930E93D7
:1018B8002CD704C010D021F401E085D001E001C08C
:1018C80000E089919991A991B9910895A7E0B4E0B0
:1018D8000D911C910895009117040023089500911B
:1018E8001504E8C6D7DE002371F00A95B1F00A9511
:1018F80081F10A9509F440C0025009F450C00A95D4
:1019080009F459C05EC021DF002319F00A950C9331
:1019180002C008E08CD07BD052C0D8DF19970B30BA
:1019280020E012070CF44DC00233120741F0043FC7
:1019380021E0120721F0083823E1120721F4000FF3
:10194800111F45E001C042E041D0189655D045D05E
:1019580036C0009115040230A0F1053011F00233B1
:1019680031F412E0019F800145E030D001C00695B6
:1019780000931504B4DF23C05DD0023C1D4B204FFB
:101988004FEF3407F4F02ED011F4015001C0045683
:1019980010402040304033D091F02BD010C0A9E047
:1019A800B4E0ED91FC911B9732975CF01A9690DFAA
:1019B8000FD0ABD604C08FDF21F000E004D001E0E7
:1019C80001C000E080CF00931704A9C650E021C1F0
:1019D800015010401C930E930895199718960D9175
:1019E8001C9141C60091100400230D911D912D9169
:1019F8000895A7DC84C614960D931C9308953C9310
:101A08002E931E930E93009116040023089520919F
:101A180014044EE050E010E0420F511FB0D0009384
:101A28001304022FEAD5009113047CC600E000934A
:101A380014040895BADC85DC139708952FB7F89439
:101A480004E610E0E8E1F4E0008311832FBF089575
:101A58002FB7F8940CE211E0F5CF09E209B900E0DC
:101A680000BD08E90AB900911D040E5F00931C042B
:101A78000895BD01392F482F002319F1EAE1F4E058
:101A8800228150E02223A1F00381802F90E001966B
:101A980082179507B4F05E9B14C010E41BB9201799
:101AA80011F40DE00AC02817590711F40AE005C01F
:101AB800A081B181A20FB51F0C910CB902810395C9
:101AC8000283842F932FDB010895EAE1F4E0008379
:101AD800118300E00283238308958A93FA93EA939B
:101AE8003A922A921A920A927A936A935A934A934A
:101AF8003A932A931A930A938FB71CB100E01154B2
:101B080079F0135049F0175069F0125019F0185035
:101B180029F009C001E007C002E005C003E003C0E6
:101B280004E001C005E052DA8FBF099119912991AB
:101B38003991499159916991799109901990299010
:101B48003990E991F9918991189500008895FECF0F
:101B58000FE50DBF01E00EBFC0EED0E0BCD1002301
:101B680009F0C9D13CDAF1DFF0CFE199FECF089551
:101B78004F5F5F4FFADF4EBB5FBBE09A0895FADF15
:101B88000DB30895F7DF0DB3F3DF1DB30895F2DF4A
:101B98000DB3EEDF1DB3ECDF2DB3EADF3DB30895DF
:101BA8004F5F5F4F4EBB5FBBF894E29AE19A0FBE5E
:101BB80008950FB6DADF0DBBF5CF0FB6D6DF0DBB34
:101BC800F1DFD3DF1DBBECCF0FB6CFDF0DBBEADFF4
:101BD800CCDF1DBBE5DFC9DF2DBBE2DFC6DF3DBBC8
:101BE800DFCF00241124EFE0001F111F001C111C7F
:101BF8000416150610F0041A150AEA95AAF7001F2C
:101C0800111FA001009510950895519541955040D8
:101C18000895FF27552312F4F160F7DF112312F41A
:101C2800F09506D0DEDFF0FD03D0F1FDEECF08958C
:101C38001195019510400895002411241001E0E247
:101C4800EA9592F0001F111F221F331F001C111C60
:101C5800221C331C041615062606370688F3041AB8
:101C6800150A260A370AECCF001F111F221F331F3F
:101C7800A001B10100951095209530950895FF2792
:101C8800772312F4F16014D0332312F4F09508D0BE
:101C9800D3DFF69508F404D0F69508F409C0089542
:101CA80030952095109501951F4F2F4F3F4F089560
:101CB80070956095509541955F4F6F4F7F4F089590
:101CC800AF93BF93D80101900D9241505040D9F77E
:101CD800BF91AF9108958A939A934A925A926A92C1
:101CE800AA93BA930024112410012001F00188E07E
:101CF8006D9098E0662049F4762F652F542F432F76
:101D0800322F212F102F002714C0669440F4000EA4
:101D1800111E221E331E441E551EE61FF71F000FFC
:101D2800111F221F331F441F551F661F771F9A95C7
:101D380061F78A95E9F680019101A201BF01B99185
:101D4800A99169905990499099918991089502D0E3
:101D58002DD00EC04A928A939A93AA93BA938D91E2
:101D68004D90ED91FD910D901D902D903C90089512
:101D780009911991299139914991599169917991CB
:101D8800001F111F221F331F441F551F661F771F77
:101D980000951095209530954095509560957095D3
:101DA800B991A99199918991499008950F931F9399
:101DB8002F933F934F935F936F937F930027112740
:101DC8009801A801B801B7E0A8E09F91AA95DAF0B8
:101DD800991F001F111F221F331F441F551F661F05
:101DE800771F081714052E073F07400551056205A0
:101DF800730560F3081B14092E0B3F0B40095109AA
:101E080062097309E3CF9A93A8E0BA95EAF60895B0
:101E1800A1DF992733208AF491604094E095F095EA
:101E280000941094209430948195BFEF4B0AEB0BEB
:101E3800FB0B0B0A1B0A2B0A3B0A772312F490951B
:101E480029D090FBB3CFE4DF93DF0EF423D00895BD
:101E58008081080F8181181F8281281F8381381F84
:101E68008481481F8581581F8681681F8781781F54
:101E780008958081081B8181180B8281280B83813A
:101E8800380B8481480B8581580B8681680B8781C4
:101E9800780B08951095209530954095509560954C
:101EA800709501951F4F2F4F3F4F4F4F5F4F6F4F0B
:101EB8007F4F08958081081781811807828128073C
:101EC8008381380784814807858158078681680798
:101ED80087817807089501E0089520E006D0E9F7A2
:101EE8000895259102D0E9F708952D9301501040E7
:101EF800202F212B08958BEB90E0FC010591149184
:101F0800FC013296A591B491FC0134962591349147
:101F1800422F432B19F0F901E4DF01C0DEDF0696FA
:101F280010E0873C910748F308950050C300000073
:101F38000000640000000000000000E1F50500005A
:101F480000000000000000000000F65AD07B630883
:101F5800000040420F0000000000A38D23D6E2538A
:101F68000000A0860100000000000A000000000038
:101F780000006588635DDC46030010270000000050
:101F88000000F753E3A59BC42000E803000000000D
:101F98000000AE47E17A14AE470180969800000031
:101FA800000060EA0000000000000000008000005F
:0A1FB800000001000080FFFFFFFFA2
:00000001FF
:00000001FF
