:10000000B3CD1895189527C8189518951895189573
:1000100034C121C118956DCD18951895189518956E
:10002000189518951895010000000A00000064005A
:100030000000E803000010270000A08601004042F5
:100040000F006B487A006D53200072706D00202005
:100050002000202046432D3531302020002020492B
:100060004620204F6E2020002020494620204F4669
:10007000462000204175746F204F6E2020002041E3
:1000800075746F204F4646200046202000502020E7
:1000900000484920004C4F200044202000526F743B
:1000A0000046482000464C200064462000496E640B
:1000B0000047202000412020004946200050726562
:1000C00000496E7400000000004F6E20004F66660D
:0D00D000002E02F001000090006001421FB0
:1000DE00BA93AA9300E808B906E003BF0EBD05E087
:1000EE0008BF09B7056009BFACE0B2E000E00093BD
:1000FE00460296989798939810E020E030E01BD037
:10010E005BD253D300ED17E0FD0104AB15AB08EC49
:10011E0010E006D1008F118F01E000934802FD011F
:10012E0010AB11AB12AB13AB06AB17AB06AF03AFF5
:10013E0000AF11AF6EC0FD0197D200830183028321
:10014E0003830483058306830783089530D2002337
:10015E0009F452C080EF91E0FC0155D029F00689D8
:10016E0001501040068B178BACE0B2E000914502B7
:10017E00102F1A9559F01A9579F01A95A9F01A952B
:10018E00C9F01A95E9F01350C1F12EC0008D118DF2
:10019E00068B178B02E035C036D071F53DD049D0B5
:1001AE00929A40D003E02DC0B19B1AC0A99A3AD0C2
:1001BE0004E027C028D001F5929834D005E021C084
:1001CE00B1990EC0A9988CD005E067D0FC012489A6
:1001DE003589200F311F248B358BA5D006E011C039
:1001EE0026893789232B11F0073031F49298A9987C
:1001FE0000E0A1DF06E001AF0AC0A99A0DD0A998D0
:10020E0000E0BCD2F9CF06891789012B0895899198
:10021E009991A991B991089505E03FD0FC01048B05
:10022E00158B0895FD0104A915A9FC01068B178BEA
:10023E000895AC9800E002BF0DBD0CBD71D0008BCF
:10024E00018B028FAC9A0895FA93EA939AD12FB745
:10025E0067D0008911890F5F1F4F008B118B2FBF45
:10026E00099119912991E991F99118951A930A9387
:10027E001FB700910A02039500930A021FBF09914E
:10028E001991189500E028E00695C09A00C0C09814
:10029E00B19900682A95C1F70895AA939A938A9303
:1002AE0080E090E0002391F0A02FC3DFAD9A13D031
:1002BE00AD9811D0AB98E6DFE5DFE4DFAB9A102FF7
:1002CE00110F110B800F911FAA9579F78C0189914F
:1002DE009991A99108950AE60A95F1F700C008953B
:1002EE009A938A93AB98CEDF902FCCDF802FCADF04
:1002FE00102F110F110B14D0028B138BAB9A608938
:10030E00718902B79487058766877787728D0CB5DA
:10031E001DB58087018712877387899199910895FA
:10032E00E0EFF1E0089538D442D1A297989B04C033
:10033E00EFD106A917A902C001E010E008871987BE
:10034E000BD10A8F1B8F2C8F2D8F2E8F2F8F28A3C3
:10035E0029A324D1FFD35A96C3DC0A8B1B8B2C8B7B
:10036E003D8B4E8B5F8B688F798FA0E6B1E0B8DC4A
:10037E00D8D3D6DF048515852685378540910B02A7
:10038E004423C6D129F000A711A722A733A704C082
:10039E0004A715A726A737A7D8D34A934A934A93FB
:1003AE00EED0A8E6B1E0219600D4C2D090914602DC
:1003BE0000914A020023D1F09230C1F09330B1F097
:1003CE00AFDF42895389652F64D144895589519590
:1003DE0041955040652F660F660B762FB5D3A3D08F
:1003EE00CAD0FE013896BED038DDA2D000E090D142
:1003FE00A4DE923021F0933011F0913041F5CED041
:10040E0092D0C3D0A0E7B1E06BDCDE0121DD0A8F14
:10041E001B8F2C8F3D8F4E8F5F8F68A379A39CD03F
:10042E000A8B1B8B2C8B2D8B2E8B2F8B288F298F32
:10043E000A8D1B8D2C8D3D8D4E8D5F8D68A179A102
:10044E00A0E6B1E089DCDE01529686DC3EC064D3C4
:10045E00E8E7F1E034DDD9F18ED084D030DDB9F1AA
:10046E005BD3E0E8F1E02BDD24F4A8E8B1E069D03D
:10047E002CC0E0E9F1E023DD34F4A8E9B1E061D06D
:10048E00A0EAB1E021C0E8EAF1E019DD34F4A0EB16
:10049E00B1E057D0A8E6B1E017C0E8EBF1E00FDD10
:1004AE0034F4A0ECB1E04DD0A0ECB1E00DC0E8EC1E
:1004BE00F1E005DD24F445D0A0EBB1E005C0A0EAE3
:1004CE00B1E03FD0A8E9B1E00BDC22D19BD159D3EA
:1004DE007096F5DC1CF48F011BD122D019D162D09D
:1004EE004485558566857785EADC1CF404E112E0C7
:1004FE0017D047D315DFC2DC0BD1008F118F228F9F
:10050E00338F448F558F668F778F00AD002329F080
:10051E003AD376D1FDD05AD100AFA29678DEEBC297
:10052E0048E050E0D2CB15D04D834E834F830895D3
:10053E000A871B872C873D874E875F87688B798B51
:10054E000895CEDB06D05D836E837F83DE011A961F
:10055E007FCCB4D24C83089508851985212F220FA4
:10056E00220B08952196199129913991499159910A
:10057E0069917991089509D07A936A935A934A931F
:10058E003A932A931A930A9308950A851B852C850C
:10059E003D854E855F85688979890895E0EFF1E0A4
:1005AE0001D0D3C200851185228533850895BA9373
:1005BE00AA939A938A930895BA93AA932897009030
:1005CE004802002049F0EBE4F2E0402D0193119334
:1005DE00219331934A95D1F740E040934902088226
:1005EE0049834A834B834C834D834E834F83B1D2D1
:1005FE0002D028960ECE74DBECE0F2E000A311A33D
:10060E0022A333A344A355A366A377A308951B2F58
:10061E002A2F7ED002AF023011F4969A05C0033015
:10062E00969811F4979A01C09798939800E01CD071
:10063E0050E083DD04AD002349F0ABE4B2E0402F7F
:10064E005D935D935D935D934A95D1F7DF01DD96E2
:10065E005C9350A351A352A353A354A355A356A3E3
:10066E0057A3A22FB12F089504A705A706A707A782
:10067E0000A701A702A703A70895A801612F09D01B
:10068E0044EF51E060E070E0FFDA42D004AB15AB0E
:10069E000895660F660B08EE13E02224169F302D88
:1006AE00069F300D159F202D310D069F200D311DFB
:1006BE00149F102D210D321D059F100D211D321D71
:1006CE00049F002D110D221D321D0895002311F4DB
:1006DE0001E003C0053608F004E60093480200234B
:1006EE0051F0EBE4F2E0402F00E00193019301930F
:1006FE0001934A95D1F700E00093490209D000A377
:10070E0001A302A303A304A305A306A307A30895AD
:10071E00ECE0F2E00895FCDF00AB11AB22AB33ABA3
:10072E000895013020E0120714F401E010E0F0DF2C
:10073E0006AB17AB089500934A0208950F7011F49B
:10074E0001E003C0083008F007E000934702089567
:10075E009298A99800E012C000914602043069F404
:10076E0010910B0201E0102710930B0219F0969ACC
:10077E00979802C09698979A939801E00093450235
:10078E00089500E0CDDD068B078B08E0F7CFC8DDBE
:10079E00048915894BEF5FEF41CA0091450206307F
:1007AE0011F401E0089500E008950D01ACE0B2E00F
:1007BE000D911D912D913D914D915D916D917C917C
:1007CE0017971ED0FD0102D0D0010895008B118B1A
:1007DE00228B338B448B558B668B778B00871187DF
:1007EE0022873387448755876687778700E0008F97
:1007FE00018F028F038F048F058F068F078F089549
:10080E00E0EFF1E000831183228333834483558329
:10081E00668377830895C0D16A92C9DE6C97009182
:10082E00470214E0019FF001EE5DFF4F0591159117
:10083E002591349143D188249924AA24BB24CC2415
:10084E00DD24EE24FF2400914602002391F0015096
:10085E0078F0035008F151F10A9509F470C00A9529
:10086E0009F473C00A9509F47AC00A9509F481C097
:10087E0089C04EDF00A911A922A933A966D1542F30
:10088E00642F742FA8E8B1E02BDA2AD159876A8732
:10089E007B8777D13ED157C03BDF80809180A2808D
:1008AE00B380C480D580E680F7806CC031DF80A530
:1008BE0091A5A2A5B3A5082F092B0A2B0B2B09F482
:1008CE0061C004A515A526A537A5402F412B422BA7
:1008DE00432B09F457C0080F191F2A1F3B1F48014D
:1008EE00590112D131D1FCD049874A874B874B2F02
:1008FE00440F440B4A934A934A934A9358DEA0ED11
:10090E00B1E0099152D137D1598F6A8F7B8FCB2CA1
:10091E00CC0CCC088C869D86AE86BF86C88AC98ACA
:10092E00CA8ACB8A0C891D892E893F89488D598D9B
:10093E006A8D7B8DEED0DE011C968ADA04C021D141
:10094E00A8EDB1E0CDD9EDD01DC0E2DE808491845A
:10095E00A284B384C484D584E684F78413C0D8DE1D
:10096E0080889188A288B388C488D588E688F7885D
:10097E0009C0CEDE808C918CA28CB38CC48CD58CAD
:10098E00E68CF78CC1D0B2D07FD9E9D0C5D0CED00D
:10099E0048015901E0EEF1E092DA34F00FEF802ECB
:1009AE00902EA02E0FE709C0E8EEF1E088DA34F4BD
:1009BE0001E0802E9924AA2400E8B02E8882998224
:1009CE00AA82BB826090480202E0601608F471C0F1
:1009DE000091490214E0019FABE4B2E0A00DB11DFD
:1009EE000D911D912D913C911397B9D091DE00A1DF
:1009FE0011A122A133A144A155A166A177A1FE01A7
:100A0E0034963CDA98D0FE01749627DAF5DD5BD089
:100A1E00FD010082118222823382862C86949924D3
:100A2E008C8256D06C8A9D8A9E8A9F8A988E998EC9
:100A3E009A8E9B8E7BD0C801D9016ADE05AD0395D7
:100A4E0005AF061508F095AE40E15FD0082F1CD912
:100A5E00AC01BD01400F511F621F731F34D04015F2
:100A6E005105620573055CF0AC01BD01401B510BD5
:100A7E00620B730B0416150626063706B4F4EBE468
:100A8E00F2E0062D488159816A817B814193519311
:100A9E00619371930A95B1F7909249026C8218D0C6
:100AAE0025D057D01496A7DD04C088839983AA83D6
:100ABE00BB831CD06C96ABDB69901DC00883198379
:100ACE002A833B830895088019802A803B800895ED
:100ADE009D829E829F82988699869A869B8608958D
:100AEE000C831D832E833F834887089508811981C7
:100AFE002A813B81089589909990A990B990C990C7
:100B0E00D990E990F990089542E050E060E070E0ED
:100B1E000895FE013496A1C984019501A601B7017D
:100B2E000895480159016A017B010895F2DF03D04F
:100B3E00DE0154968DC90C871D872E873F87488B03
:100B4E00598B6A8B7B8B08959FD8432F440F440B90
:100B5E000895FBDF542F642F742FDE010895F5DF07
:100B6E00BFDF49874A874B87C1DFEFDF04D0498F4C
:100B7E004A8F4B8F08950C8B1D8B2E8B3F8B488F7E
:100B8E000895ECE0F2E000811181228133814481ED
:100B9E005581668177810895FA92EA92DA92CA9225
:100BAE00BA92AA929A928A920895DDDC99C815E0BB
:100BBE00C59804FB16F4C49A01C0C498000FC59AD8
:100BCE001A95B1F7C39AC49A08E00A95F1F700C0D6
:100BDE00C39808958A93802F02950F7008D08F7056
:100BEE0000C0082FACD08991089502950061DFDF17
:100BFE000AE20A95F1F700C00895202F212B31F05B
:100C0E004ED001501040202F212BD1F708950C010A
:100C1E00FA016AE070E071936A95E9F780E2932F2A
:100C2E00990F90E0991F000F111F221F331FFA0119
:100C3E0039967AE06081660F692B90E06A3010F089
:100C4E006A5F91E06F70608331977A9599F78A9514
:100C5E0031F7C0010895C39816D018D000E3BADF5B
:100C6E0000E000C00A95E9F711D000E20BD008E2CF
:100C7E0009D00CE007D006E0ADDF0CD001E007D0C4
:100C8E0009D063C0A7DF0FE010E0B7CF00E3A2DF0B
:100C9E0005E0FACF0FE003D00A95E9F708952FE7A4
:100CAE003CE021503040E9F700C00000A8950895BF
:100CBE006A925A924A929A938A936090F5030DE043
:100CCE000093F5032091DB030091DC03063479F0E9
:100CDE000237B1F0265459F02A9561F02A9551F059
:100CEE00245041F0245031F0225039F009C002E472
:100CFE0010E008C006E410E005C00AE410E002C0EF
:100D0E000EE410E047D000E865DF8BED93E000E1E4
:100D1E00402EFC015190CF01052D67DF00E1052922
:100D2E000ED04A94B1F76092F50320E10BED13E07B
:100D3E00D1D689919991499059906990089537DF4C
:100D4E0005ED0A95F1F70000089536D000E110E2A6
:100D5E0011930A95E9F700E00093F503A9CF00235C
:100D6E0011F401E003C0013108F000E10A9500938F
:100D7E00F50308952091F503203130F406D0008359
:100D8E001BD0028D0395028F0895F0E0E22FE552FD
:100D9E00FC4F08950CC02091F503203130F4F5DF9F
:100DAE0040830AD0228D2395228F0F5F1F4FF801AB
:100DBE004491442381F70895EBEDF3E00895BA933F
:100DCE00AA939A938A93902FA12F8A019B01B0E048
:100DDE009A95AA95892F8395772342F4109520959D
:100DEE00309501951F4F2F4F3F4FB1E04BEE53E023
:100DFE000EDF20E0EBEEF3E004C00191002321F4BE
:100E0E0023952917D0F3A9F0292F9A3050F490E0AA
:100E1E00D3DFE80FF91F0DE20193839523952A3056
:100E2E00D8F32A17D1F50EE2F0E0E82FB0DF0083F9
:100E3E0034C030E2292F9A3080F50BEE13E050E0EB
:100E4E00090F151FF8015081BB2369F0303259F498
:100E5E00552311F42A1759F44DE2F0E0E82FE6522B
:100E6E00FC4F408302C0303221F4552311F42A176F
:100E7E0011F4352F305DE82FF0E089DF3083839554
:100E8E002A1731F44EE2E82FF0E081DF408383959C
:100E9E0023950F5F1F4F2A30A8F289919991A9913E
:100EAE00B991089500E00093F80308950FEE28E03D
:100EBE00C59807FB16F4C49A01C0C498000FC59AD2
:100ECE00B29901602A95A1F700950F700A9559F015
:100EDE000A9559F0025059F00A9579F00A9549F0A1
:100EEE00025049F00CC001E0089502E0089503E0BD
:100EFE00089504E0089505E0089506E0089500E0E1
:100F0E000895BA93AA93002309F453C0A6EFB3E051
:100F1E000091FB03002321F015960A950C9315976B
:100F2E000D911C911197012B29F00D91015010403C
:100F3E001C930E93BBDF202F0091F9032017E1F0D5
:100F4E000091FA03201731F02093FA0304E6009380
:100F5E00FB032FC00091FB03002359F5222331F030
:100F6E0000E416E00D931C932093F8032093F903ED
:100F7E0000E00093FC031DC00D911C9111970130F0
:100F8E0030E01040B1F40091FC03003160F42064B5
:100F9E002093F80308E611E00D931C9315960C911F
:100FAE0003950C9306C020682093F80308E70D9371
:100FBE003C93A991B99108950093F8030895009177
:100FCE00F80310E01093F803089512D017D023D031
:100FDE007FD85DD078942CD00093FE03B7D80091C3
:100FEE00FE03BDD00091FE030023A9F3A895F3CF15
:100FFE00A89508E101BD0EE001BD089509E307BB08
:10100E000EEF08BB0EE304BB0DE505BB0EEC01BBFA
:10101E0003E302BB08950CE005BD03E603BD00E843
:10102E0008BF09B7006809BF01E00093FD030895EA
:10103E001FB7F8940091FD03002300E019F0009310
:10104E00FD0301E01FBF0895FA93EA932A931A93C2
:10105E000A932FB701E00093FD030091180410913D
:10106E001904012B69F0AA9B02C0AA9809C0AA9A7A
:10107E00E8E1F4E0008111810150104000831183FA
:10108E002FBF099119912991E991F99118950FD3D3
:10109E00E2DD08DFE7D47FD180E090E042D209F1B3
:1010AE00CAD408EE13E0FD010087118701E0068B1C
:1010BE0006EB15EA2EEF3FEF4CD000E0078B01E078
:1010CE0010E002871387008FCFD10E96AC0119E086
:1010DE0005E074D54F5F5F4F1A95D9F7009313044F
:1010EE001EC01CD2602FA8D416D2FD010087118716
:1010FE000FD2068BAC0150D52CD007D2078B089699
:10110E00AC0145D502871387FDD1008F70E040E01A
:10111E0050E0460F571F425F5F4F36D5048B28D3E2
:10112E0076DAFD0100851185A8DAE8D3FD01028586
:10113E001385F7DA00911704FEDA20D111F019D1D8
:10114E0001C020D1E8DA74D48AD1F0D001E0EBD01E
:10115E00C9C30D931D932D933C9313970895ABD252
:10116E008A93802F8BD4082FCCDE15D1882331F0B3
:10117E0064D021F014960D913AD4149720DFCCD080
:10118E0006FF02C001E001C000E000930F041F96AD
:10119E000C9107FF02C001E001C000E000931004B3
:1011AE000C910F730C9319F027D009F44CD41091B5
:1011BE000B0400910C04101711F001E001C000E0C7
:1011CE001A9549F01A9549F01A9549F01A9549F071
:1011DE001A9549F009C016D007C040D005C0ABD053
:1011EE0003C0DCD001C0F9D007D021F498D0002381
:1011FE0009F033D4899178C300910F041091100433
:10120E00012B0895C4D049F002E510E0C3DD50DD96
:10121E001AD408E813E119D004C00FD011F413D476
:10122E0081D07DD0002341F000E014960D930C93F5
:10123E000AD400E071D076D057C303D01597012B96
:10124E00089514960D911C91089514960D931C9368
:10125E00159700910B0400930C04089598D041F05B
:10126E0087D265D104EF11E0CBD300910B040FC0F0
:10127E0000911104002369F01496E4DF012B49F468
:10128E001091120401E010271093120400E0009355
:10129E000C0483DA002309F0E3D041D0013061F46D
:1012AE0000911104002300E019F040D0D8D031C0D5
:1012BE0000930D0405E02CC0053079F41091110453
:1012CE0001E01027109311041093120411F040DA6C
:1012DE0002C06BDA41DAC4D01DC0063019F4C0D09A
:1012EE0003E016C00023B9F046D20023A1F0A0D32C
:1012FE00009113044EE050E02091140430E0420FB0
:10130E00531F5CD430930C040AD0043011F404E063
:10131E000AD000E001D0E8C200930E0408950091B7
:10132E000E04089502E000930B0408950093110437
:10133E000093120408952BD0D9F00091160411E0F9
:10134E000127009316044CE050E038D4FEDC16D092
:10135E0031F00DE510E01EDD0CD0139704C008E649
:10136E0010E018DD0FD0D7D9A3DC00EA1FE06DDF47
:10137E0027C00D911D912D913C9108950091160459
:10138E000023089500E010E020E030E0089593D1AE
:10139E0002D000230895AFEFB3E00895F8DF81F097
:1013AE00D4DC54960C91509707FF03C003E710E06E
:1013BE0002C00EE710E0EEDC7BDC00EA1FE046DF49
:1013CE0000E000930E043DDF012B21F43CD302E03C
:1013DE0000930B04A991B9910895D9DF61F0B8D9A2
:1013EE0035D06CD133D0063029F4CBD908E512E0D4
:1013FE0007D315972EDF2AD0063039F41EDF29F4D5
:10140E00C6D91696FED217972BD089DF013041F43C
:10141E001E960C9103950C93073079F41AD00DC0DB
:10142E00023021F413D06DD2002339F478DF03306B
:10143E0031F40CD0DDD1002311F012D005C06FDFD6
:10144E00053019F406D000E067DF4EC200910D049E
:10145E0008950AD081D902E000930B0408957CD937
:10146E0000E000930C0408957ED1158957D0011722
:10147E0019F04AE050E044D0208531854CD0021757
:10148E00130721F046E050E089019CD3168940D025
:10149E00011719F04BE050E033D040E050E07CD320
:1014AE00008011802280338000151105220533053E
:1014BE0029F08001910140E050E08BD3178925D0AF
:1014CE00011719F04CE050E01BD02285338548E01F
:1014DE0050E05DD30217130721F048E050E0890178
:1014EE0071D3108D0FD0011719F04DE050E008D0D8
:1014FE0018D029F00AED1EEB44E050E063D30895B6
:10150E00012F5CC34DE050E03FC34CE050E03CC3C4
:10151E004BE050E039C346E050E039C34AE050E0BA
:10152E0033C344E050E033D30A3D1E4B0895FA9284
:10153E00EA92DA92CA927A926A925A924A92B7D002
:10154E00802F03DC04E0809F09D124DC882331F452
:10155E0015DF21F001E003DC06EC0CDC5CD9C801E0
:10156E00D9011BD9002309F0F7D8109113041F7766
:10157E001E5FFED0002339F00A9529F0035019F0B2
:10158E000A9591F01FC003E020E8422E26E9522E64
:10159E0028E9622E77242FEFC22E20EED22E25EFD1
:1015AE00E22E25E0F22E1DC005E020EA422E26E8AE
:1015BE00522E21E0622E77242FE3C22E22E4D22E69
:1015CE002FE00DC004E020E4422E22E4522E2FE044
:1015DE00622E77242FE7C22E26E9D22E28E9E22E9C
:1015EE00FF2420911204222319F4AC01BD01E7DB84
:1015FE005FDBB9D0048907FF50C0BB236AF08415A6
:10160E009505A605B70514F402E0B5D0C816D9069F
:10161E00EA06FB06ECF51BC050946094709441945E
:10162E00570867087708481659066A067B0614F4A9
:10163E0002E0A1D0D094E094F0940FEFC194D00AC0
:10164E00E00AF00A8C159D05AE05BF050CF510914C
:10165E001304012F0F770395083008F007E020914F
:10166E001404222351F02A9541F0235031F02A958B
:10167E0041F4033048F403E007C0002329F401E0ED
:10168E0003C0023008F402E0101711F000931304A7
:10169E006AD004890068048B51D824D1499059909E
:1016AE0069907990C990D990E990F990089503D0F6
:1016BE009A938A930895BA93AA9308958A93802F42
:1016CE0044DB0DEA10E024E0829F000D111D62DB69
:1016DE00882359F08A9581F08A9591F08A95B1F018
:1016EE008250D9F08A9501F131C005E038DB40D047
:1016FE0014E0019F33D01EC036D04085518510C0F6
:10170E004091150450E060E070E00BC02CD0408199
:10171E0051816281738119E005C025D042855385C0
:10172E0018D010E005E011C005E019DBE3D021F47C
:10173E000DEC10E02FDB0AC009EC10E02BDB13D010
:10174E004681578106D010E007E039DBB1DA899186
:10175E000895652F660F660B762F089509E810E041
:10176E00000D111D0895EFEFF3E00895A4E1B4E02C
:10177E00009114040895102FF6DF4489042F0F777B
:10178E0047FF02C021E001C020E0123019F420E032
:10179E000A9509C0133019F420E0039504C01430E3
:1017AE0011F411E02127083008F007E01589112304
:1017BE0039F01A9529F0135019F01A9529F008C02E
:1017CE00002349F401E007C0033028F403E003C00E
:1017DE00023008F402E0222311F020E801C020E0DC
:1017EE00022B401711F400E00895048B01E00895D8
:1017FE005EDF002371F00A95A9F00A95B1F10A9502
:10180E0009F447C0025009F457C00A9509F463C0A1
:10181E0068C0ACDF083018F403950C9301C00BD1EF
:10182E00FBD05DC064D01997003127E212070CF08F
:10183E0058C0043120E0120739F0083C120721F09D
:10184E00003D27E0120759F4C801880F991F42E0A6
:10185E00CCD0800F911F18968D939C9304C0000FCF
:10186E00111F1896CED0C8D03AC000911504043678
:10187E00C0F5023011F0043139F4102F110F069516
:10188E00100F1093150403C0000F0093150436D0EB
:10189E0026C0D5D00F3312442F4040E034070CF54C
:1018AE0011961D912D910F5F1F4F2F4F3F4FACD0B3
:1018BE00B1F00D9130D713C0A9E0B4E0C3DC1B9793
:1018CE00083E23E012076CF41B960F5F1F4F1C930C
:1018DE000E9327D704C00ED021F401E083D001E08F
:1018EE0001C000E089919991A991B9910895A7E05D
:1018FE00B4E0A8CC009117040023089500911504BC
:10190E00E5C6D9DE002371F00A95B1F00A9581F192
:10191E000A9509F440C0025009F450C00A9509F422
:10192E0059C05EC023DF002319F00A950C9302C044
:10193E0008E082D071D052C0DADF19970B3020E068
:10194E0012070CF44DC00233120741F0043F21E0A0
:10195E00120721F0083823E1120721F4000F111F9E
:10196E0045E001C042E041D018964BD045D036C07C
:10197E00009115040230A0F1053011F0023331F45C
:10198E0012E0019F800145E030D001C00695009322
:10199E001504B4DF23C053D0023C1D4B204F4FEF34
:1019AE003407F4F011961D912D91015010402040F6
:1019BE0030402AD099F00D91AED610C0A9E0B4E017
:1019CE00ED91FC911B9732975CF01A963BDC0FD091
:1019DE00A8D604C08FDF21F000E004D001E001C0E2
:1019EE0000E082CF00931704A6C650E017C1015045
:1019FE0010401C930E9308951997189623DC3DC63C
:101A0E0014960D931C9308953C932E931E930E9350
:101A1E000091160400230895209114044EE050E026
:101A2E0010E0420F511FB0D000931304022FEFD5D8
:101A3E000091130483C600E0009314040895ABDCF8
:101A4E0098DC139708952FB7F89404E610E0E8E1B8
:101A5E00F4E0008311832FBF08952FB7F8940CE2A2
:101A6E0011E0F5CF09E209B900E000BD08E90AB9B5
:101A7E0000911D040E5F00931C040895BD01392FC3
:101A8E00482F002319F1EAE1F4E0228150E02223ED
:101A9E00A1F00381802F90E0019682179507B4F094
:101AAE005E9B14C010E41BB9201711F40DE00AC0A0
:101ABE002817590711F40AE005C0A081B181A20FC1
:101ACE00B51F0C910CB9028103950283842F932FBD
:101ADE00DB010895EAE1F4E00083118300E0028364
:101AEE00238308958A93FA93EA933A922A921A924A
:101AFE000A927A936A935A934A933A932A931A9331
:101B0E000A938FB71CB100E0115479F0135049F0CD
:101B1E00175069F0125019F0185029F009C001E061
:101B2E0007C002E005C003E003C004E001C005E009
:101B3E0043DA8FBF099119912991399149915991A0
:101B4E00699179910990199029903990E991F991BB
:101B5E008991189500008895FECF0FE50DBF01E025
:101B6E000EBFC0EED0E0BCD1002309F0C9D12DDAF2
:101B7E00F1DFF0CFE199FECF08954F5F5F4FFADFAF
:101B8E004EBB5FBBE09A0895FADF0DB30895F7DF01
:101B9E000DB3F3DF1DB30895F2DF0DB3EEDF1DB30A
:101BAE00ECDF2DB3EADF3DB308954F5F5F4F4EBBC1
:101BBE005FBBF894E29AE19A0FBE08950FB6DADF92
:101BCE000DBBF5CF0FB6D6DF0DBBF1DFD3DF1DBBDF
:101BDE00ECCF0FB6CFDF0DBBEADFCCDF1DBBE5DFF1
:101BEE00C9DF2DBBE2DFC6DF3DBBDFCF00241124F2
:101BFE00EFE0001F111F001C111C0416150610F03B
:101C0E00041A150AEA95AAF7001F111FA0010095E4
:101C1E00109508955195419550400895FF275523ED
:101C2E0012F4F160F7DF112312F4F09506D0DEDF27
:101C3E00F0FD03D0F1FDEECF089511950195104002
:101C4E000895002411241001E0E2EA9592F0001F9D
:101C5E00111F221F331F001C111C221C331C0416C3
:101C6E0015062606370688F3041A150A260A370AB9
:101C7E00ECCF001F111F221F331FA001B1010095D1
:101C8E001095209530950895FF27772312F4F16073
:101C9E0014D0332312F4F09508D0D3DFF69508F460
:101CAE0004D0F69508F409C0089530952095109546
:101CBE0001951F4F2F4F3F4F08957095609550958A
:101CCE0041955F4F6F4F7F4F0895AF93BF93D801EC
:101CDE0001900D9241505040D9F7BF91AF910895A8
:101CEE008A939A934A925A926A92AA93BA9300242A
:101CFE00112410012001F00188E06D9098E066201B
:101D0E0049F4762F652F542F432F322F212F102F6A
:101D1E00002714C0669440F4000E111E221E331EBE
:101D2E00441E551EE61FF71F000F111F221F331FE3
:101D3E00441F551F661F771F9A9561F78A95E9F61E
:101D4E0080019101A201BF01B991A99169905990A9
:101D5E00499099918991089502D02DD00EC04A9242
:101D6E008A939A93AA93BA938D914D90ED91FD918A
:101D7E000D901D902D903C900895099119912991E7
:101D8E0039914991599169917991001F111F221F23
:101D9E00331F441F551F661F771F00951095209502
:101DAE0030954095509560957095B991A9919991FE
:101DBE008991499008950F931F932F933F934F93BB
:101DCE005F936F937F93002711279801A801B801A5
:101DDE00B7E0A8E09F91AA95DAF0991F001F111F96
:101DEE00221F331F441F551F661F771F0817140528
:101DFE002E073F07400551056205730560F3081B6A
:101E0E0014092E0B3F0B4009510962097309E3CFE8
:101E1E009A93A8E0BA95EAF60895A1DF99273320A0
:101E2E008AF491604094E095F0950094109420947B
:101E3E0030948195BFEF4B0AEB0BFB0B0B0A1B0A81
:101E4E002B0A3B0A772312F4909529D090FBB3CF3F
:101E5E00E4DF93DF0EF423D008958081080F818193
:101E6E00181F8281281F8381381F8481481F858116
:101E7E00581F8681681F8781781F08958081081BEF
:101E8E008181180B8281280B8381380B8481480B4A
:101E9E008581580B8681680B8781780B0895109584
:101EAE0020953095409550956095709501951F4FF2
:101EBE002F4F3F4F4F4F5F4F6F4F7F4F0895808192
:101ECE00081781811807828128078381380784814A
:101EDE0048078581580786816807878178070895A6
:101EEE0001E0089520E006D0E9F70895259102D08B
:101EFE00E9F708952D9301501040202F212B0895BE
:101F0E0081ED90E0FC0105911491FC013296A591B2
:101F1E00B491FC01349625913491422F432B19F044
:101F2E00F901E4DF01C0DEDF069610E08D3D91077A
:101F3E0048F308950050C300000000006400000044
:101F4E000000000000E1F5050000000000000000A8
:101F5E0000000000F65AD07B6308000040420F00DC
:101F6E0000000000A38D23D6E2530000A0860100DE
:101F7E00000000000A000000000000006588635D9C
:101F8E00DC4603001027000000000000F753E3A515
:101F9E009BC42000E803000000000000AE47E17A79
:101FAE0014AE4701809698000000000060EA000021
:101FBE000000000000000080000000000100008012
:041FCE00FFFFFFFF13
:00000001FF
:00000001FF
