:10000000AACC189518958FC7189518951895189516
:100010004BC138C118954ECC189518951895189560
:10002000189518951895010000000A00000064005A
:100030000000E803000010270000A08601004042F5
:100040000F006B487A006D53200072706D00202005
:100050002000EE602F6DE1CDCF68EFEDEBC78E672E
:100060008F8BCEE3864347AB0387460100202046B3
:10007000432D353130202000204175746F204F6EA4
:10008000202000204175746F204F666620004620B6
:1000900020004649460050202000484920004C4F8F
:1000A000200044202000526F740046482000464C37
:1000B000200064462000496E640047202000412053
:1000C00020004946200050726500496E74004F6E52
:1000D00020004F66660000002C040A00C303B8032A
:1000E000C303C303C303CD0309040F04190423048A
:1000F0002001370735070D390714130702170701C9
:100100001907021D07011F07012107012307032506
:1001100007032907012D07022F07101507021907EA
:10012000011B07011D07082707012B07032F0702E3
:100130003107013307FB2B02F00100009000600142
:10014000581E46DD00E808B906E003BF0EBD05E015
:1001500008BF09B7056009BF00E00093320238D23A
:10016000C7D27DD200ED17E00687178708EC10E0B4
:10017000008B118B01E0038B108711871287138787
:10018000AFE2B2E00D931C9300933502009333026B
:1001900000933102128BB7C01BDD002309F45BC052
:1001A0005ED204851585012B29F00485015010408D
:1001B0000487158746855785048515852289A7EF0D
:1001C000B1E0322F3A9559F03A9579F03A95C9F065
:1001D0003A95F1F03A9521F13350F1F132C00089AE
:1001E00011890487158702E019C0012BA1F539D0C8
:1001F0003ED0929A34D2068517850487158703E08E
:100200000DC0B19B1CC0A99A4487558704E006C065
:10021000012B09F592984487558705E0028B1BC096
:10022000B1990DC0A99876D005E054D0FD0126A95A
:1002300037A9200F311F26AB37AB8FD009C0012B58
:1002400011F0273041F49298A99800E0FD01D0D137
:1002500006E00093480257C0A99A03D0A99800E08D
:10026000F8CF05E037D0FD0106AB17AB0895AC9889
:1002700000E002BF0DBD0CBD6DD004830583068375
:10028000AC9A0895FA93EA9371D12FB763D00481A1
:1002900015810F5F1F4F048315832FBF099119919B
:1002A0002991E991F991189562D11FB70091F60152
:1002B00003950093F6011FBF09911991189500E06D
:1002C00028E00695C09A00C0C098B19900682A95A8
:1002D000C1F708957DDCB02F80E090E0A0E010C071
:1002E000C6DFAD9A12D0AD9810D0AB98E8DFE7DF4B
:1002F000E6DFAB9A102F110F110B800F911FA39502
:10030000AB1770F38C01E4E074CC0AE60A95F1F7C0
:1003100000C008955CDCAB98D2DF402ED0DF802F88
:10032000CEDF102F110F110BA7D104AB15ABAB9A79
:1003300011D02481358142B74082418322833383A7
:1003400076810CB51DB598D180A701A712A773A718
:10035000E5E04ECCE0EFF1E008952EDCA097989B0D
:1003600004C08AD160AC71AC03C077246624639466
:10037000272D220F220B688E798E2A8F2B8F2C8FA0
:100380002D8F2E8F2F8F78D1DDD013D158961CD37F
:10039000A0E6B1E037DC13D3009134020023DADFAA
:1003A00020D36AD129F004A715A726A737A704C030
:1003B00000AB11AB22AB33AB02D14A934A934A93C1
:1003C000D3D0A8E6B1E043D31DDC56D390913202DE
:1003D000009135020023B1F09330A1F0943091F0F8
:1003E0004BD144A955A9A5D008EE13E020E030E098
:1003F00026DB46A957A95195419550409AD062DB1A
:10040000A6D02ED300E038D1FBD0933021F0943029
:1004100011F0923019F596D09AD0A0E7B1E0F2DB56
:10042000DE01A8DCC3D24C8F5D8F6E8F7F8F272DAE
:10043000220F220B688A798A2A8B2B8B2C8B2D8B8F
:100440002E8B2F8BFFD24C8D5D8D6E8D7F8DA0E618
:10045000B1E014DCDE01509611DC3CC0ACD2E9F115
:1004600077D07FD0F4D2BDDCC1F19BD2E0E8F1E0DF
:10047000B8DC24F4A8E8B1E061D02CC0E0E9F1E0F8
:10048000B0DC34F4A8E9B1E059D0A0EAB1E021C071
:10049000E8EAF1E0A6DC34F4A0EBB1E04FD0A8E646
:1004A000B1E017C0E8EBF1E09CDC34F4A0ECB1E083
:1004B00045D0A0ECB1E00DC0E8ECF1E092DC24F412
:1004C0003DD0A0EBB1E005C0A0EAB1E037D0A8E98B
:1004D000B1E098DBD1D077D0DBD22AD1709681DC25
:1004E0001CF48F01C9D022D0C7D056D2448555857F
:1004F0006685778576DC1CF40FEF11E017D018D1F4
:1005000078964EDCB9D000A311A322A333A344A351
:1005100055A366A377A300913102002321F0E8D010
:1005200000E000933102A096E0E157CB48E050E0B4
:1005300038CB652F660F660B762F089527D2DE0124
:10054000189618CC00A511A522A533A5089554D25C
:10055000088519852A853B854C855D856E857F8557
:1005600008957A936A935A934A933A932A931A93E3
:100570000A9308952DDB289750E04091490264E0EA
:1005800006C0569FF001E55BFD4F1DD053955417F3
:10059000C0F350E050934A02488359835A835B83E7
:1005A0005C835D835E835F8304D02CDB6ED22896F0
:1005B000AACE05D0542F642F742FDE010895432F47
:1005C000440F440B089500831183228333830895DD
:1005D00053D003AF033011F4969A05C004309698B7
:1005E00011F4979A01C0979893982ED001D0C2CF5A
:1005F00000AB01AB02AB03AB04A705A706A707A797
:1006000000830183028303830483058306830783B6
:100610000895212F220F220B322F48EE53E060E085
:1006200070E00DDA44EF51E04DDA19D006871787F4
:100630000895002311F401E003C0053608F004E634
:100640000093490201D096CF00E010E020E030E0B6
:10065000089505D000871187228733870895E6E340
:10066000F2E00895013020E0120714F401E010E0F8
:1006700003D000AF11AF0895E7EFF1E008950093C4
:10068000350208950F7011F401E003C0083008F03E
:1006900007E00093330208959298A99800E0009330
:1006A00048020895E9DF03AD053059F415AD01E0C6
:1006B000102715AF19F0969A979802C09698979AB6
:1006C000939801E0ECCFCBDF00E00487058708E0DA
:1006D000028B0895D1DF06A917A94BEF5FEF9CC9E4
:1006E00000914802063011F401E0089500E00895F9
:1006F0001FD0008F118F228F338F448F558F668FBD
:10070000778F008B118B228B338B448B558B668BB1
:10071000778BA0DF448755876687778700E000A343
:1007200001A302A303A304A305A306A307A308959B
:10073000E7EFF1E050C140DA6C9787EF91E000916C
:10074000330214E0019FF001EE5DFF4F059115911A
:10075000259134912BD188249924AA24BB24CC241C
:10076000DD24EE24FF2400913202E6EDF0E0D4C94E
:1007700076DF12D1432F3AD1A8E8B1E007D12AD1D0
:10078000FE01FDDA4AC0FC0180809180A280B38026
:10079000C480D580E680F7805FC0FC0144A455A4E6
:1007A00066A477A4042D05290629072909F459C050
:1007B00000A911A922A933A9402F412B422B432B79
:1007C00009F44FC0040D151D261D371D48015901A0
:1007D00034D178D911D182019301472D07D1A0EDF1
:1007E000B1E0F2D0CB2CCC0CCC0888869986AA86B6
:1007F000BB86CC86CD86CE86CF86088919892A8984
:100800003B894C895D896E897F89FE01B8DA97DE64
:1008100004C0E0D0A8EDB1E0F5D9D1D01DC0FC01F5
:1008200080849184A284B384C484D584E684F784CC
:1008300013C0FC0180889188A288B388C488D588B9
:10084000E688F78809C0FC0180A091A0A2A0B3A00F
:10085000C4A0D5A0E6A0F7A0AED01CF4DBD0A0DAEF
:1008600002C0D8D08CDA08D1DE01509683DAA7D046
:1008700098D0E0EEF1E0B5DA34F00FEF802E902E54
:10088000A02E0FE709C0E8EEF1E0ABDA34F401E0A6
:10089000802E9924AA2400E8B02E6090490202E03C
:1008A000601608F46FC000914A0214E0019FABE4A7
:1008B000B2E0A00DB11D0D911D912D913C911397AA
:1008C0009BD0CB2CCC0CCC08888A998AAA8ABB8A6C
:1008D000CC8ACD8ACE8ACF8AC2DE7DD042DEFE01AE
:1008E0003896B5D05DDAC8D03CDEFE017896AFD040
:1008F00046DACBD08D929D92AD92BC92062D069594
:1009000010E0088319831A831B831C831D831E83B5
:100910001F83688A198B1A8B1B8B1C8B1D8B1E8B5C
:100920001F8B59D09DD01DDEDE01589690D022DA63
:10093000C801D90194DE04890395048B061510F0D3
:1009400000E0048B40E17AD0082FBCD8AC01BD0197
:10095000400F511F621F731F481559056A057B051B
:100960005CF0AC01BD01401B510B620B730B841694
:100970009506A606B70624F484019501FBDD02C0A6
:100980004C015D01840195016C96CECD3BD93CD0E4
:100990005D836E837F83089500851185228533856D
:1009A000089584019501A601B7010895088F198F54
:1009B0002A8F3B8F0895F5DFE8E7F1E012CA48017E
:1009C00059016A017B0108951DD931D05D8B6E8B71
:1009D0007F8B0895FC0105D0448155816681778124
:1009E000089500811181228133810895440F440BC1
:1009F000542F642F742F0895432F440F440B04D0B9
:100A00004D834E834F830895088319832A833B8344
:100A10004C83089512D016D055D8EEDF13D0CFDD19
:100A200006D04D8B4E8B4F8BBCDFFE010895088B9B
:100A3000198B2A8B3B8B4C8B089542E050E060E091
:100A400070E00895088D198D2A8D3B8D08952196AB
:100A50001991299139914991599169917991089503
:100A60007A936A935A934A933A932A931A930A93DE
:100A7000FE013896ECDF83D9088719872A873B87E0
:100A80004C875D876E877F870895E6E3F2E09BDD04
:100A9000448355836683778308959BD860E080E024
:100AA000FA01E60FF81F808363956A30C8F370E29D
:100AB000A32FAA0FA0E0AA1F000F111F221F331F90
:100AC00089E0982F990F990BFA01E80FF91F6081BF
:100AD000660F6A2BA0E06A3010F06A5FA1E06F70C9
:100AE00060838A9572F77A9519F7E3E083C8CDD1D0
:100AF00047C06FD8A091F5030EE055D02091DB03DD
:100B00000091DC03063481F00237B9F0265461F01D
:100B10002A9569F02A9559F0245049F0245039F06B
:100B2000225041F0245149F402E410E008C006E4E8
:100B300010E005C00AE410E002C00EE410E04CD062
:100B400001E0A7D180E09AE017D0063609F406EC60
:100B5000803130F4B3D010811E3211F400588395E7
:100B60001091F603811709F407D095D19A9561F792
:100B7000A093F503D7D6B9CFA1D00081839508956E
:100B800027D800E0EBEDF3E020E210E0DF01A00F5A
:100B9000B11F2C9303950031C8F3128F00E1038F2E
:100BA000A8DFE4E026C8002311F401E003C001310E
:100BB00008F000E10A950093F50308952091F503EC
:100BC000203148F4F0E0E22F7BD00083EBEDF3E03E
:100BD000028D0395028F0895FDD7C80103C00591CA
:100BE000CF01ECDFFC0104910023C9F7E2E003C868
:100BF000EFD7902FA12F8A019B01B0E09A95AA957B
:100C0000892F83959093F603772342F410952095CE
:100C1000309501951F4F2F4F3F4FB1E04BEE53E002
:100C20003CDF00E005C047D01089112321F4039573
:100C30000917C8F391F0092F1DE290E003C010835B
:100C400083950395EBEDF3E0E80FF91F0A30B8F355
:100C50000A1711F40EE20083A4CF10E2092F90E0EE
:100C60004DE213C0103221F4552311F40A1711F488
:100C7000152F105DF901108383950A1729F42EE2D0
:100C8000FC011ED02083839503950A3028F713D0EA
:100C900050892BED33E0280F391FBB2319F3103295
:100CA00009F7552311F40A1709F7F9014293DCCF2C
:100CB00002D000810895F0E0E02F02C0F0E0E82FBC
:100CC000E552FC4F089500E00093F90308950FEEFC
:100CD00028E0C59807FB16F4C49A01C0C498000F19
:100CE000C59AB29901602A95A1F700950F700A95EF
:100CF00049F00A9549F0025049F0025049F002507B
:100D000049F00AC001E0089502E0089503E0089563
:100D100004E0089505E0089500E0089559D7002300
:100D200009F453C0A7EFB3E00091FC03002321F0C6
:100D300015960A950C9315970D911C911197012BFF
:100D400029F00D91015010401C930E93C0DF202F0D
:100D50000091FA032017E1F00091FB03201731F016
:100D60002093FB0304E60093FC032FC00091FC03D7
:100D7000002359F5222331F000E416E00D931C9373
:100D80002093F9032093FA0300E00093FD031DC0B4
:100D90000D911C911197013030E01040B1F4009199
:100DA000FD03003160F420642093F90308E611E0AC
:100DB0000D931C9315960C9103950C9306C0206817
:100DC0002093F90308E70D933C93E4E012C77CCF2E
:100DD0000091F90310E01093F903089515E0C59808
:100DE00004FB16F4C49A01C0C498000FC59A1A9562
:100DF000B1F7C398C49AC39A08950F700061EECFFB
:100E00000F70ECCFE7D6802F8F7707FB16F491E0B9
:100E100001C090E0082F00530A3008F48053082FD7
:100E2000E0EFF0E079C68AE025C08BE023C08CE0DB
:100E300021C08DE01FC08EE01DC08FE01BC080E18F
:100E400019C081E117C081E015C082E113C083E1C0
:100E500011C080E00FC084E10DC085E10BC086E1C8
:100E600009C087E107C088E105C08AE103C08B3172
:100E700008F089E1F0E0E82FEE5AFF4F84919923C2
:100E800009F08061082FE2E0B6C60FE0B9DF0FE09D
:100E9000B4CF0A95B5CF8A93B5DF802FAEDF8295A8
:100EA000082FABDF8991089512D017D023D049D9EC
:100EB0005DD078942CD00093FF036ED90091FF038E
:100EC000B0D00091FF030023A9F3A895F3CFA89514
:100ED00008E101BD0EE001BD089509E307BB0EEF77
:100EE00008BB0EE304BB0DE505BB0EEC01BB03E341
:100EF00002BB08950CE005BD03E603BD00E808BF92
:100F000009B7006809BF01E00093FE0308951FB709
:100F1000F8940091FE03002300E019F00093FE0313
:100F200001E01FBF0895FA93EA932A931A930A9354
:100F30002FB701E00093FE030091190410911A04E9
:100F4000012B69F0AA9B02C0AA9809C0AA9AE9E1FC
:100F5000F4E00081118101501040008311832FBF04
:100F6000099119912991E991F991189531D6BFDD2F
:100F700070D4A9DE55D1F9D109F100E00093150430
:100F800008EE13E030D425D400E010E00D930D936B
:100F90000D930C93179601E08FD11B9700931704C4
:100FA0008ED120E005E030E0CAD1420F531F435FED
:100FB0005F4F02D523952A30B8F31BC0D1D1002E44
:100FC00000931504CAD10FD4C5D104D4CCD10D934C
:100FD0001D932D933C931796BAD16ED11B97B4D124
:100FE0000093170410E0ABD1400D511F435F5F4FDA
:100FF000C9D4009314044BD2EBDA04D1199709DB5E
:1010000058D353D33C91179624DBFDD02BDB0091B2
:10101000170435DBD2D346DBD7D0CDD001E06BD07F
:10102000EFC0D6D5802F1FD4082F78DEF9D08823C3
:1010300031F064D021F014960D91B8D31497C8DE26
:1010400000930F0406FF02C001E001C000E000931E
:1010500010041F960C9107FF02C001E001C000E0E0
:10106000009311040C910F730C9319F022D009F422
:1010700060D410910C0400910D04101711F001E0E0
:1010800001C000E01A9539F01A9539F01A9539F037
:101090001A9539F007C013D005C035D003C098D0D9
:1010A00001C0C1D006D021F483D0002309F04BD475
:1010B000A7C00091100410911104012B0895ACD029
:1010C00051F00DE610E088DD14DD33D408E813E1BB
:1010D00014969CD003C012D009F40BD069D0002321
:1010E00039F000E014960D930C9323D469D002D00C
:1010F00087C01FD402E000930C04089514960D914C
:101100001C911597DACF88D041F0C1D134D104EFCA
:1011100011E0D1D000910C040FC000911204002303
:1011200069F0149670D0012B49F41091130401E07A
:1011300010271093130400E000930D04D1DA00236C
:1011400009F042D01091120433D0013049F4112338
:1011500000E011F030D010C000930E0404E025C070
:10116000053069F401E01027109312041093130462
:1011700011F092DA02C0BCDA95DA26D017C000234B
:10118000B1F0DDD1002399F018D3009114044DE0A3
:1011900050E02091150430E0420F531F0DD43093DE
:1011A0000D0406D0043011F403E0A5DF09D028C0F7
:1011B00000910F04089500931204009313040895FE
:1011C00000E000930F04089500E000930D040895DB
:1011D00023D081F0D5DC54960C91509707FF03C0C3
:1011E00008E710E002C003E810E0F6DC82DC00EA69
:1011F0001FE00CD0E5DF149606D0012B09F479DF4F
:10120000E4E0F7C418960D911C9108950D931C937A
:10121000159700910C04D9CFDBD402D00023089598
:10122000A0E0B4E00895F8DF61F036DA3DD032D1C5
:101230003BD0053029F447DA08E512E03CD0159799
:10124000E8DF32D0053039F459DF29F443DA169655
:1012500033D01797B9DFACDF013041F41E960C9103
:1012600003950C930630B1F422D014C0023021F45F
:101270001BD022D2002371F49BDF033021F414D061
:101280009BD1002339F494DF043031F40DD0B9D26E
:10129000002311F099DF05C08BDF053021F407D062
:1012A00000E000930F04ACCF00910E04089507D026
:1012B000F9D902E020CF14960D931C93089579D1AB
:1012C00015894ED0011719F04AE050E03BD0208537
:1012D000318543D00217130721F046E050E0890121
:1012E0006FD3168937D0011719F04BE050E02AD0A0
:1012F0003AD000801180228033800015110522052C
:10130000330521F0800191011AD061D32285338504
:101310001ED00217130721F048E050E0890150D396
:10132000178912D0011719F04CE050E00BD01DD0F6
:1013300029F00AED1EEB44E050E042D3089540E06E
:1013400050E00895012F38C34CE050E01BC348E043
:1013500050E01BC34BE050E015C346E050E015C31E
:101360004AE050E00FC3EBDF15C344E050E00DD37B
:101370000A3D1E4B089520D4802F02DC813019F4E1
:1013800006E61CDC04C004E0809FD4D025DCD3D961
:10139000C801D901A5D9002309F084D910911404FA
:1013A0001F771E5F74D0035028F0025019F00A9581
:1013B00091F01FC003E020E8422E26E9522E28E9D2
:1013C000622E77242FEFC22E20EED22E25EFE22EB2
:1013D00025E0F22E1DC005E020EA422E26E8522E1E
:1013E00021E0622E77242FE3C22E22E4D22E2FE0BA
:1013F0000DC004E020E4422E22E4522E2FE0622EA3
:1014000077242FE7C22E26E9D22E28E9E22EFF24E8
:1014100020911304222319F4AC01BD01E9DB69DB3F
:10142000C8D0048907FF31C0BB236AF08415950535
:10143000A605B70514F402E082D0C816D906EA065C
:10144000FB06F4F41BC050946094709441945708C8
:1014500067087708481659066A067B0614F402E006
:101460006ED0D094E094F0940FEFC194D00AE00ACB
:10147000F00A8C159D05AE05BF0514F403E05FD09E
:1014800098D004890068048BFDD8E0E1A6C30091E0
:10149000150408958A93802F73DB06EB10E024E097
:1014A000829F000D111D98DB882359F08A9581F0E9
:1014B0008A9591F08A95B1F08A95D9F08A9501F1D3
:1014C00031C005E070DBE3DF14E0019F33D01EC0C4
:1014D00070D04085518510C04091160450E060E006
:1014E00070E00BC066D0408151816281738119E048
:1014F00005C05FD04285538518D010E005E011C0CB
:1015000005E051DBCCD021F402ED10E065DB0AC030
:101510000EEC10E061DB4DD04681578106D010E023
:1015200007E066DBE6DA89910895652F660F660BA2
:10153000762F08950EE810E0000D111D0895102F6C
:1015400038D04489042F0F7747FF02C021E001C043
:1015500020E0123019F420E00A9509C0133019F484
:1015600020E0039504C0143011F411E02127083065
:1015700008F007E01589135028F0125019F01A9559
:1015800029F008C0002349F401E007C0033028F423
:1015900003E003C0023008F402E0222311F020E847
:1015A00001C020E0022B401709F44EC1048B01E07A
:1015B0000895E0E0F4E008950BD3002371F00A955C
:1015C000C9F00A95C1F10A9509F445C00A9509F4D4
:1015D00053C00A9509F45BC060C0EBDF0589093090
:1015E00010F4039501C000E0058B2589F6D0048B2B
:1015F000E2D051C0DEDF00851185003127E21207FD
:101600000CF04BC0C801880F991F043120E012076D
:1016100039F0083C120721F0003D27E0120729F4B9
:1016200042E0C2D0800F911FC4DF80879187008580
:101630001185EFD730C000911604043670F5102FD5
:10164000110F023011F0043111F40695100F1093B0
:1016500016042FD020C0CCD00F3312442F4040E0CE
:101660003407DCF41FD011F40F5F01C00C591F4F79
:101670002F4F3F4FA5D00FC09CDF02851385083E3A
:1016800023E0120754F40F5F1F4FE0D004C007D0CF
:1016900021F401E09BD001E001C000E0B1CD009158
:1016A0001704BCCD0091110400230D911D912D91C3
:1016B000089500911604BDC78BD2002371F00A95DE
:1016C000F1F00A95D1F10A9509F449C00A9509F497
:1016D00057C00A9509F460C065C0A5E1B4E0D7DE43
:1016E000002319F00A950C9303C009E00093150438
:1016F0002091150472D0009314045DD051C0A8E06D
:10170000B4E081DD19970B3020E012070CF44AC0D9
:101710000233120741F0043F21E0120721F008389C
:1017200023E1120721F4000F111F45E001C042E040
:101730003BD059D067DD6DD733C00091160402301D
:1017400088F1053011F0023331F412E0019F80017D
:1017500045E02AD001C006953DD0ABDF21C048D07E
:10176000023C1D4B204F4FEF3407E4F09BDF11F498
:10177000015001C0045610402040304021D010C01C
:10178000AAE0B4E0ED91FC911B9732975CF01A96B9
:101790003ADD0CD067D704C082DF21F000E016D01C
:1017A00001E001C000E02CCD50E036C101501040F6
:1017B0001C930E930895022F0BD70091140462C757
:1017C0003C932E931E930E9317D043C70093170498
:1017D00056C701E00093160408954DE050E010E074
:1017E000420F511FCFC018960D931C93199708955F
:1017F00017DD02D0139708950D911D912D913C9105
:1018000008950A9539F00A9561F00A9569F00A95EC
:10181000B1F01AC008EE13E0CCDE00871187F9D6CC
:1018200002C0D7DF06D7C3CE00E010E020E030E0F2
:10183000C0DE00830183028303830BD7F4CF01E072
:1018400010E0B7DE03D0EFCF00E0089502871387E2
:1018500009C709E209B900E000BD08E90AB902E1D7
:10186000009318040895002321F100911804002327
:1018700031F401E0F5DF00E01BDA0CB90895023124
:10188000C0F45E9B16C000E40BB90091180400314F
:1018900021F40DE00CB901E105C0013121F40AE0A9
:1018A0000CB902E1DDCF102F13951093180400DA64
:1018B0000CB908958A93FA93EA933A922A921A926B
:1018C0000A927A936A935A934A933A932A931A9371
:1018D0000A938FB71CB100E0115479F0135059F0FE
:1018E000175069F0125019F0185019F009C001E0B2
:1018F00007C003E005C002E003C004E001C005E04A
:1019000066DA8FBF099119912991399149915991BD
:10191000699179910990199029903990E991F991FB
:101920008991189500911804023111F400E098DFB4
:1019300008952FB7F89404E610E0E9E1F4E000839D
:1019400011832FBF08952FB7F8940CE211E0F5CF63
:1019500000008895FECF0FE50DBF01E00EBFC0EE81
:10196000D0E050D2002309F05DD29EDAF1DFF0CF53
:10197000E199FECF08954F5F5F4FFADF4EBB5FBB2B
:10198000E09A0895FADF0DB30895F7DF0DB3F3DFA2
:101990001DB30895F2DF0DB3EEDF1DB3ECDF2DB301
:1019A000EADF3DB308954F5F5F4F4EBB5FBBF894D6
:1019B000E29AE19A0FBE08950FB6DADF0DBBF5CFBC
:1019C0000FB6D6DF0DBBF1DFD3DF1DBBECCF0FB6FB
:1019D000CFDF0DBBEADFCCDF1DBBE5DFC9DF2DBBF1
:1019E000E2DFC6DF3DBBDFCF00241124EFE0001FA4
:1019F000111F001C111C0416150610F0041A150AFC
:101A0000EA95AAF7001F111FA001009510950895EF
:101A10005195419550400895FF27552312F4F160E8
:101A2000F7DF112312F4F09506D0DEDFF0FD03D0CE
:101A3000F1FDEECF089511950195104008952224EF
:101A4000349F302D259F300D169F300D079F300D90
:101A5000249F202D310D159F200D311D069F200D37
:101A6000311D149F102D210D321D059F100D211DBC
:101A7000321D049F002D110D221D321D08950024DA
:101A800011241001E0E2EA9592F0001F111F221FBD
:101A9000331F001C111C221C331C041615062606BD
:101AA000370688F3041A150A260A370AECCF001FF6
:101AB000111F221F331FA001B10100951095209521
:101AC00030950895FF27772312F4F16014D0332363
:101AD00012F4F09508D0D3DFF69508F404D0F6950B
:101AE00008F409C0089530952095109501951F4F71
:101AF0002F4F3F4F089570956095509541955F4FDA
:101B00006F4F7F4F0895759165915591459115904F
:101B100011FA259035900895F9DF041B10E003C0F9
:101B2000F4DF041B150B20E030E005C0ECDF041BE4
:101B3000150B260B370BB8F010FC17C0459105901C
:101B4000E00FF11F0417100540E02407340758F494
:101B500036F404910024F101E01BF0090994E00F30
:101B6000F11F25903590F101099411F4D6F7F1CFCA
:101B700031960EF0319650E060E070E045914B3FB9
:101B800048F089F34F3F29F04E3F11F07591659170
:101B900055914591041B150B260B370B39F318F3A0
:101BA000E7CFAF93BF93D80101900D9241505040C1
:101BB000D9F7BF91AF910895FA92EA92DA92CA9258
:101BC000BA92AA929A928A927A926A925A924A9275
:101BD000BA93AA939A938A930895FF84EE84DD843E
:101BE000CC84BB84AA84998488847F806E805D8045
:101BF0004C80BB81AA8199818881F0E0EC0FFD1FA8
:101C0000EF0108958A939A934A925A926A92AA93FC
:101C1000BA930024112410012001F00188E06D9096
:101C200098E0662049F4762F652F542F432F322FEA
:101C3000212F102F002714C0669440F4000E111EAF
:101C4000221E331E441E551EE61FF71F000F111FD4
:101C5000221F331F441F551F661F771F9A9561F778
:101C60008A95E9F680019101A201BF01B991A9917C
:101C700069905990499099918991089502D02DD0F9
:101C80000EC04A928A939A93AA93BA938D914D90DB
:101C9000ED91FD910D901D902D903C90089509912E
:101CA0001991299139914991599169917991001F1F
:101CB000111F221F331F441F551F661F771F0095DA
:101CC0001095209530954095509560957095B991F7
:101CD000A99199918991499008950F931F932F93FA
:101CE0003F934F935F936F937F9300271127980142
:101CF000A801B801B7E0A8E09F91AA95DAF0991F72
:101D0000001F111F221F331F441F551F661F771FFF
:101D1000081714052E073F07400551056205730596
:101D200060F3081B14092E0B3F0B4009510962098F
:101D30007309E3CF9A93A8E0BA95EAF60895A1DF74
:101D4000992733208AF491604094E095F0950094AF
:101D50001094209430948195BFEF4B0AEB0BFB0B52
:101D60000B0A1B0A2B0A3B0A772312F4909529D001
:101D700090FBB3CFE4DF93DF0EF423D0089580818E
:101D8000080F8181181F8281281F8381381F848159
:101D9000481F8581581F8681681F8781781F089595
:101DA0008081081B8181180B8281280B8381380B6D
:101DB0008481480B8581580B8681680B8781780B5D
:101DC00008951095209530954095509560957095A3
:101DD00001951F4F2F4F3F4F4F4F5F4F6F4F7F4F1B
:101DE00008958081081781811807828128078381DF
:101DF000380784814807858158078681680787816D
:101E00007807089501E0089520E006D0E9F70895E5
:101E1000259102D0E9F708952D9301501040202F0D
:101E2000212B089586E391E0FC0105911491FC01BA
:101E30003296A591B491FC01349625913491422FAC
:101E4000432B19F0F901E4DF01C0DEDF069611E053
:101E50008234910748F308950050C3000000000049
:101E6000640000000000000000E1F5050000000033
:101E70000000000000000000F65AD07B630800005C
:101E800040420F0000000000A38D23D6E253000063
:101E9000A0860100000000000A0000000000000011
:101EA0006588635DDC460300102700000000000029
:101EB000F753E3A59BC42000E803000000000000E6
:101EC000AE47E17A14AE470180969800000000000A
:101ED00060EA000000000000000000800000000038
:081EE00001000080FFFFFFFF7D
:00000001FF
:00000001FF
