:100000007ECC18951895DFC71895189518951895F2
:1000100072C15FC11895189518951895189518957F
:10002000189518951895010000000A00000064005A
:100030000000E803000010270000A08601004042F5
:100040000F00EE602F6DE1CDCF68EFEDEBC78E674F
:100050008F8BCEE3864347AB0387460100202046C3
:10006000432D353130202000204175746F204F6EB4
:10007000202000204175746F204F666620004620C6
:10008000200050202000484920004C4F20004420F0
:100090002000526F740046482000464C2000644601
:1000A0002000496E6400472020004120200049467E
:1000B000200050726500496E74004F6E20004F663C
:1000C0006600540656065606560656065606560648
:1000D0005606560656065606560656065206560644
:1000E0005606560656065606560656065606560630
:1000F0005606560656065606560656065606560620
:1001000056065606300656063406360656063A0693
:100110003C063E064006560656064206560656065B
:1001200046064A0656064C06560656065606560615
:1001300056065606560656065606560656065606DF
:1001400056065606560632065606360638063A064D
:1001500056065606560656065606560656064406D1
:100160004806560656064C0656064E06500623020C
:10017000F001000090006001D81CBA93AA9300E837
:1001800008B906E003BF0EBD05E008BF09B705606A
:1001900009BF00E00093320257D205D3B8D200ED78
:1001A00017E00687178708EC10E0008B118B01E041
:1001B000038B1087118712871387AFE2B2E074D0E8
:1001C000009335020093330200933102128B39C23F
:1001D000BA93AA93002309F442C0A2E4B2E00D91BD
:1001E0001C911D97012B39F01C960D910150104068
:1001F0001C930E931C9700914802102F1A9559F0EA
:100200001A9581F01A95B1F01A9551F11A9571F17C
:100210001350D9F11AC050960D911C91159744D0E6
:1002200002E01BC037D089F442D048D0929A38D02F
:1002300003E013C0B19B04C0A99A32D004E00DC002
:100240001C962D913C91232B11F0073041F492988C
:10025000A9981BD200E008D206E000934802F1C141
:1002600019D099F792981CD005E0F7CFB199E8CF53
:10027000A99878D005E055D008D226A937A9200F33
:10028000311F26AB37AB93D0E7CFA99A10D0A998EE
:1002900000E0E3CF1C962D913C911D97232B0895F0
:1002A0001E960D911C9113970D931C93089505E0D4
:1002B00038D0E7EFF1E006AB17AB0895AC9800E05B
:1002C00002BF0DBD0CBD70D0048305830683AC9ABC
:1002D0000895FA93EA9386D12FB766D004811581E9
:1002E0000F5F1F4F048315832FBF09911991299127
:1002F000E991F991189577D11FB70091F60103950F
:100300000093F6011FBF09911991189500E028E0AC
:100310000695C09A00C0C098B19900682A95C1F7A7
:10032000089565D180E090E0002391F0A02FC6DF12
:10033000AD9A13D0AD9811D0AB98E8DFE7DFE6DFD8
:10034000AB9A102F110F110B800F911FAA9579F7FF
:100350008C0189919991A991089506E60A95F1F782
:10036000000008954A928A93AB98D0DF402ECEDFEA
:10037000802FCCDF102F110F110B87D104AB15ABE1
:10038000AB9A12D02481358142B7408241832283C7
:10039000338376810CB51DB578D180A701A712A74C
:1003A00073A7899149900895E0EFF1E00895D0D3C3
:1003B0001DD1A097989B04C068D160AC71AC03C0FC
:1003C000772466246394272D220F220B688E798E62
:1003D0002A8F2B8F2C8F2D8F2E8F2F8F56D1E4D0DD
:1003E0002AD158969FD396D3A0E6B1E04BDB8DD3AC
:1003F000009134020023D8DFA6D347D129F004A707
:1004000015A726A737A704C000AB11AB22AB33ABAF
:10041000C4D04A934A934A93E3D0A8E6B1E0B0D35C
:1004200031DBC3D390913202009135020023A9F051
:10043000923099F0933089F028D144A955A9652FBD
:1004400033D146A957A9519541955040652F660F64
:10045000660B762FEBDABCD09CD300E016D10CD122
:10046000923021F0933011F0913049F59DD0B0D009
:10047000A0E7B1E007DBDE01BDDB088F198F2A8F13
:100480003B8F4C8F5D8F6E8F7F8F272D220F220B1E
:10049000688A798A2A8B2B8B2C8B2D8B2E8B2F8B1A
:1004A000088D198D2A8D3B8D4C8D5D8D6E8D7F8DC8
:1004B000A0E6B1E023DBDE01509620DB40C018D37C
:1004C000E8E7F1E0CEDBE9F118D37F8586D058D399
:1004D000C8DBB9F10DD3E0E8F1E0C3DB24F4A8E810
:1004E000B1E067D02CC0E0E9F1E0BBDB34F4A8E96F
:1004F000B1E05FD0A0EAB1E021C0E8EAF1E0B1DB11
:1005000034F4A0EBB1E055D0A8E6B1E017C0E8EBB9
:10051000F1E0A7DB34F4A0ECB1E04BD0A0ECB1E00B
:100520000DC0E8ECF1E09DDB24F443D0A0EBB1E09A
:1005300005C0A0EAB1E03DD0A8E9B1E0A3DAA5D0BA
:100540003FD351D170968DDB1CF48F019ED029D002
:100550009CD0008511852285338544855585668527
:1005600077857FDB1CF40FEF11E01BD03CD1789630
:1005700057DB8BD000A311A322A333A344A355A31D
:1005800066A377A300913102002321F00CD100E093
:1005900000933102A09653D09EC2432F440F440BC8
:1005A000089548E050E063CA00A511A522A533A52F
:1005B000089568DADFD25D836E837F8308811981B5
:1005C0002A813B814C815D816E81DE01189612CBC0
:1005D000CBD293D27F85089590D27A936A935A931F
:1005E0004A933A932A931A930A930895BA93AA9333
:1005F0009A938A930895BA93AA93289700904902F0
:10060000002049F0EBE4F2E0402D01931193219397
:1006100031934A95D1F740E040934A0208824983DA
:100620004A834B834C834D834E834F8304D02ADA15
:10063000C5D2289606C0432F44D2DE010895899181
:100640009991A991B991089520D003AF023011F486
:10065000969A05C00330969811F4979A01C097981E
:1006600093984AD001D0C7CF00AB01AB02AB03AB2C
:1006700004A705A706A707A70083018302830383B6
:1006800004830583068307830895E7EFF1E0089567
:10069000A801612F09D044EF51E060E070E0C6D9B5
:1006A00036D0068717870895660F660B08EE13E0AD
:1006B0002224169F302D069F300D159F202D310DC1
:1006C000069F200D311D149F102D210D321D059FF9
:1006D000100D211D321D049F002D110D221D321DF4
:1006E0000895002311F401E003C0053608F004E684
:1006F0000093490201D07FCF00E010E020E030E01D
:10070000089505D000871187228733870895E6E38F
:10071000F2E00895013020E0120714F401E010E047
:10072000B4DF00AF11AF08950093350208950F7044
:1007300011F401E003C0083008F007E00093330231
:1007400008959298A99800E00093480208959DDFCB
:1007500003AD043059F415AD01E0102715AF19F0C1
:10076000969A979802C09698979A939801E000936A
:1007700048020895CCDF00E00487058708E0028B7B
:10078000089583DF06A917A945E050E019D911950E
:1007900001951040089500914802063011F401E0DF
:1007A000089500E008951FD0008F118F228F338F9E
:1007B000448F558F668F778F008B118B228B338BF5
:1007C000448B558B668B778B9DDF44875587668777
:1007D000778700E000A301A302A303A304A305A35A
:1007E00006A307A30895E7EFF1E0A7C1B1D15A929C
:1007F0004A92FCDE689727EF31E00091330214E063
:10080000019FF001EE5DFF4F45905590659074900B
:1008100088249924AA24BB24CC24DD24EE24FF249C
:10082000009132020023A1F0015088F0035008F437
:1008300041C009F449C00A9509F47AC00A9509F43F
:100840007CC00A9509F483C00A9509F48AC092C055
:100850005EDF80859185A285B38540E452E46FE038
:10086000699F702D5A9F700D4B9F700D689F602D72
:10087000710D599F600D711D4A9F600D711D589F2C
:10088000502D610D781D499F500D611D781D489FA9
:10089000510D681D781DC72ECC0CCC0808825983D9
:1008A0006A837B83CC82CD82CE82CF8245D11ED11A
:1008B0002CD160C0F90180809180A280B380C48077
:1008C000D580E680F78056C0F90184A595A5A6A538
:1008D000B7A5082F092B0A2B0B2B09F44BC000A935
:1008E00011A922A933A9402F412B422B432B09F4F4
:1008F00041C0080F191F2A1F3B1F48015901E6D0AC
:1009000032D18C019D014B2FDCD0A0EDB1E00AD19A
:10091000CB2CCC0CCC0888869986AA86BB86CC8644
:10092000CD86CE86CF86F6D07F89E0D04EDEC0CF92
:1009300003D1A8EDB1E0A6D8BBCFF90180849184A2
:10094000A284B384C484D584E684F78413C0F901F7
:1009500080889188A288B388C488D588E688F7887B
:1009600009C0F90180A091A0A2A0B3A0C4A0D5A005
:10097000E6A0F7A0ABD082019301F5D0472D0EDEA3
:10098000488A598A6A8A7B8A4C8B4D8B4E8B4F8B57
:10099000AFD0ACD00AD1B1D0DE0150962BD94801EE
:1009A0005901E0EEF1E05DD934F00FEF802E902E8A
:1009B000A02E0FE709C0E8EEF1E053D934F401E0CE
:1009C000802E9924AA2400E8B02E6090490202E00B
:1009D000601608F46FC000914A0214E0019FABE476
:1009E000B2E0A00DB11D0D911D912D913C91139779
:1009F000BBD0CB2CCC0CCC08888A998AAA8ABB8A1B
:100A0000CC8ACD8ACE8ACF8A82DE97D0E6DDFE01FF
:100A10003896B6D005D9C9D0DFDDFE017896B0D0C2
:100A2000EED8CCD08D929D92AD92BC92062D0695BB
:100A300010E0088319831A831B831C831D831E8384
:100A40001F83688A198B1A8B1B8B1C8B1D8B1E8B2B
:100A50001F8B73D09ED0C0DDDE01589691D0CAD8CE
:100A6000C801D90154DE04890395048B061510F0E2
:100A700000E0048B40E12BD0082FD8D7AC01BD019A
:100A8000400F511F621F731F481559056A057B05EA
:100A90005CF0AC01BD01401B510B620B730B841663
:100AA0009506A606B70624F484019501A4DD02C0CC
:100AB0004C015D01840195016896C1DD4990599012
:100AC0000AC06CDD542F642F742F089542E050E06B
:100AD00060E070E008956990799089909990A9906C
:100AE000B990C990D990E990F9900895FE0187C80E
:100AF00084019501A601B7010895088519852A8505
:100B00003B854C855D856E850895480159016A01D4
:100B10007B010895088919892A893B894C895D8957
:100B20006E890895AFD7088B198B2A8B3B8B4C8B22
:100B30005D8B6E8B7F8B0895F90105D044815581C3
:100B40006681778108950081118122813381089522
:100B5000FA92EA92DA92CA92BA92AA929A928A92F5
:100B60007A926A92089562D718DD04D04D834E833D
:100B70004F830895088319832A833B834C83089508
:100B800021961991299139914991599169917991B8
:100B900008957A936A935A934A933A932A931A93AD
:100BA0000A93FE013896ECDF2AD8088719872A872E
:100BB0003B874C875D876E877F870895E6E3F2E089
:100BC0000083118322833383448355836683778331
:100BD000089515E0C59804FB16F4C49A01C0C498A2
:100BE000000FC59A1A95B1F7C398C49AC39A08958D
:100BF0000C01FA016AE070E071936A95E9F780E20E
:100C0000932F990F90E0991F000F111F221F331F80
:100C1000FA0139967AE06081660F692B90E06A30BC
:100C200010F06A5F91E06F70608331977A9599F761
:100C30008A9531F7C0010895202F2F77203318F0BF
:100C40002A3308F42053122F1052163578F5F2E0AB
:100C50001F9FF001EE53FF4F05901490F00109948F
:100C60002AE026C02BE024C02CE022C02DE020C0CA
:100C70002EE01EC02FE01CC020E11AC021E118C0E8
:100C800021E016C022E114C023E112C020E010C010
:100C900024E10EC025E10CC026E10AC027E108C00E
:100CA00028E106C029E104C02AE102C02B31D0F7B7
:100CB000F0E0E22FEE5BFF4F249107FB0EF4206182
:100CC000022F08950FE085DF0FE183DF1BC0BA9389
:100CD000AA939A938A9300E07CDFABEDB3E09AE0AD
:100CE0000D91AADF802F0F70006173DF82958F70E6
:100CF0008061082F6EDF9A9599F789919991A99152
:100D0000B9910895EBEDF3E00AE010E211930A9532
:100D1000E9F700E00093EF03DACF002311F401E0DC
:100D200003C00B3008F00AE00A950093EF03089522
:100D30002091EF032A3048F4F0E0E22F76D00083D0
:100D4000EBEDF3E004890395048B08959A938A935D
:100D5000C80103C00591CF01EBDFFC010491002322
:100D6000C9F7899199910895AA939A938A93902F9C
:100D7000812F8A019B01A0E09A958A95772342F4FE
:100D800010952095309501951F4F2F4F3F4FA1E0B3
:100D900045EE53E02DDF00E0E5EEF3E004C01191F5
:100DA000112321F403950917D0F389F0092F9A3004
:100DB00050F035C020E02D62F0E0E02F36D02083E7
:100DC00003950A3060F50817A9F720E8F4CF10E280
:100DD000092F9A3020F527D03285AA2369F01032E6
:100DE00059F4332311F4081759F42DE2E02FF0E001
:100DF000E652FC4F208302C0103221F4332311F459
:100E0000081709F4132F081711F420E801C020E097
:100E1000312F322B08D0308303950A30E0F28991CC
:100E20009991A9910895E02FF0E0E552FC4F0895C3
:100E300000E00093F20308950FEE28E0C59807FB49
:100E400016F4C49A01C0C498000FC59AB299016003
:100E50002A95A1F700950F700A9549F00A9549F077
:100E6000025049F0025049F0025049F00AC001E036
:100E7000089502E0089503E0089504E0089505E070
:100E8000089500E00895BA93AA93002309F453C08B
:100E9000A0EFB3E00091F503002321F015960A9529
:100EA0000C9315970D911C911197012B29F00D9121
:100EB000015010401C930E93BFDF202F0091F303CD
:100EC0002017E1F00091F403201731F02093F40390
:100ED00004E60093F5032FC00091F503002359F5B4
:100EE000222331F000E416E00D931C932093F203CB
:100EF0002093F30300E00093F6031DC00D911C91B5
:100F00001197013030E01040B1F40091F603003148
:100F100060F420642093F20308E611E00D931C9323
:100F200015960C9103950C9306C020682093F2034C
:100F300008E70D933C93A991B99108950091F203AC
:100F400010E01093F203089512D017D023D015D9D2
:100F50005DD078942CD00093F8033AD90091F8032F
:100F6000B3D00091F8030023A9F3A895F3CFA89577
:100F700008E101BD0EE001BD089509E307BB0EEFD6
:100F800008BB0EE304BB0DE505BB0EEC01BB03E3A0
:100F900002BB08950CE005BD0FE503BD00E808BFE6
:100FA00009B7006809BF01E00093F70308951FB770
:100FB000F8940091F703002300E019F00093F70381
:100FC00001E01FBF0895FA93EA932A931A930A93B4
:100FD0002FB701E00093F703009111041091120460
:100FE000012B69F0AA9B02C0AA9809C0AA9AE1E164
:100FF000F4E00081118101501040008311832FBF64
:10100000099119912991E991F99118959FD25ADE88
:101010000FDF4DD180E090E0EBD101F153D408EE29
:1010200013E0FD010087118701E0068B00E010E06E
:101030000D930D930D930C93139701E00287138783
:10104000078B83D10D96AC0119E005E089D44F5F81
:101050005F4F1A95D9F700930D0420C0C6D1602FB9
:1010600032D4C0D1FD0100871187B9D1068BAC0104
:1010700065D40D931D932D933C9313970896AC0163
:1010800058D402871387A8D1078B70E040E050E066
:10109000460F571F435F5F4F49D4048BB8D2D4DA51
:1010A000FD0100851185F4DA76D311D42ADBFD0128
:1010B000028513852FDB0091100436DB00D440D16C
:1010C000D4D001E069D059C345D28A93802FDBDEAA
:1010D000EED0882331F063D021F014960D91D4D353
:1010E00014972CDF24D106FF02C001E001C000E00C
:1010F000009309041F960C9107FF02C001E001C094
:1011000000E000930A040C910F730C9319F023D0A4
:1011100009F4E3D31091050400910604101711F0AF
:1011200001E001C000E01A9539F01A9539F01A95DE
:1011300039F01A9539F007C014D005C03FD003C06C
:1011400099D001C0B7D007D021F48CD0002309F08A
:10115000CED3899114C30091090410910A04012B84
:101160000895A1D049F00DE510E0F0DDB0DDB5D374
:1011700008E813E11AD003C012D009F40BD072D0E2
:10118000002339F000E014960D930C93A6D3CED033
:1011900002D0F5C2A2D302E000930504089514968C
:1011A0000D911C911597012B089514960D931C9386
:1011B00015970091050400930604089574D029F052
:1011C00026D21CD104EF11E0F0DF00910B040023C4
:1011D00059F01496D9D2012B39F410910C0401E086
:1011E000102710930C04ADD0D6DA002309F0A9D053
:1011F00039D0013079F400910B04002300E019F09C
:1012000034D09ED004C00093070404E0C5DF00E0A2
:101210008ED0B5C2053079F410910B0401E010278F
:1012200010930B0410930C0411F08BDA02C0BBDA9C
:101230008EDA87D0EDCF002361F3ECD1002349F3A0
:101240003ED300910D044DE050E020910E0430E0BB
:10125000420F531F85D33093060404D00430B9F6EF
:1012600003E0D4CF00910804089500930B04009389
:101270000C04089518D081F045DD54960C915097D8
:1012800007FF03C008E610E002C003E710E05EDDE0
:101290001EDD00EA1FE08ADF49D0149675D2012BCB
:1012A00009F478DF6CC256D102D000230895A9EF6B
:1012B000B3E00895F8DF69F044DA35D04ED133D089
:1012C000053031F457DA08E512E0149668D2159724
:1012D00070DF29D0053039F462DF29F452DA16962E
:1012E0005ED217972ED0BEDF013049F41E960C91C6
:1012F00003950C93063009F41DD023D012C00230A0
:1013000021F411D04FD20023C1F7ACDF033021F418
:101310000AD0BDD1002389F7A5DF053019F40AD022
:1013200000E005D02CC200910704089500E000936E
:10133000080408950AD00BDA02E00093050408952A
:1013400006DA00E00093060408955CD115894DD0BB
:10135000011719F04AE050E03DD02085318542D098
:101360000217130721F046E050E08901FDD21689EB
:1013700036D0011719F04BE050E02CD040E050E09F
:10138000DDD20080118022803380001511052205F6
:10139000330529F08001910140E050E0ECD2228534
:1013A000338548E050E0C5D20217130721F048E02A
:1013B00050E08901D9D217890FD0011719F04CE0FC
:1013C00050E008D015D029F00AED1EEB44E050E0C3
:1013D000CBD20895012FC4C24CE050E0A7C24BE02D
:1013E00050E0A4C246E050E0A4C24AE050E09EC2F1
:1013F00044E050E09ED20A3D1E4B0895FA92EA92D4
:10140000DA92CA927A926A925A924A929FD0802F26
:1014100079DC04E0809FF1D099DC882369F4F2D074
:101420000081118122813381012B022B032B21F0BA
:1014300001E073DC06EC7CDCD9D9C801D901ABD959
:10144000002309F084D910910D041F771E5FDFD0AF
:10145000002339F00A9529F0035019F00A9591F00C
:101460001FC003E020E8422E26E9522E28E9622E12
:1014700077242FEFC22E20EED22E25EFE22E25E08C
:10148000F22E1DC005E020EA422E26E8522E21E071
:10149000622E77242FE3C22E22E4D22E2FE00DC03D
:1014A00004E020E4422E22E4522E2FE0622E772424
:1014B0002FE7C22E26E9D22E28E9E22EFF24209122
:1014C0000C04222319F4AC01BD014EDC00DC9AD0DF
:1014D000048907FF31C0BB237AF084159505A60562
:1014E000B70514F402E096D0C816D906EA06FB0642
:1014F000F4F403E08FD01BC0509460947094419436
:10150000570867087708481659066A067B0614F4D8
:1015100002E080D0D094E094F0940FEFC194D00A10
:10152000E00AF00A8C159D05AE05BF0514F36AD0DC
:1015300004890068048BFBD820D1499059906990A8
:101540007990C990D990E990F990089503D09A9331
:101550008A930895BA93AA9308958A93802FD2DB31
:1015600002EA10E024E0829F000D111DEFDB8823CA
:1015700059F08A9589F08A95B1F08A95D1F08A95CB
:10158000F9F08A9509F131C005E0C7DB40D014E0DD
:10159000019F33D0DBDB29C035D04085518528D071
:1015A00010E005E021C040910F0450E060E070E0E1
:1015B000F7CF28D0408151816281738119E0F1CF4A
:1015C00021D042855385EBCF05E0A7DBE0D019F4AD
:1015D0000EEB10E0DFCF0AEB10E0B8DB13D0468152
:1015E000578106D010E007E0BFDB71DB89910895D9
:1015F000652F660F660B762F08950EE710E0000D3D
:10160000111D0895E9EFF3E00895AEE0B4E0009114
:101610000E040895102FF6DF4489042F0F7747FF3B
:1016200002C021E001C020E0123019F420E00A9548
:1016300009C0133019F420E0039504C0143011F4EC
:1016400011E02127083008F007E01589112339F04F
:101650001A9529F0135019F01A9529F008C00023A3
:1016600049F401E007C0033028F403E003C002306E
:1016700008F402E0222311F020E801C020E0022B50
:10168000401711F400E00895048B01E008955EDF37
:10169000002371F00A95B1F00A95B1F10A9509F4A9
:1016A00047C00A9509F454C00A9509F460C064C0A3
:1016B000ACDF083018F403950C9301C003D1F3D0CC
:1016C00001E05BC05FD01997003127E212070CF0F0
:1016D00053C0043120E0120739F0083C120721F012
:1016E000003D27E0120759F4C801880F991F42E016
:1016F000C9D0800F911F18968D939C9303C0000F43
:10170000111F4CD0C6D0DCCF00910F040436A0F5D9
:10171000023011F0043139F4102F110F0695100F1B
:1017200010930F0403C0000F00930F0434D0C8CFF0
:10173000CDD00F3312442F4040E03407ECF4119623
:101740001D912D910F5F1F4F2F4F3F4FA7D0B8CF47
:10175000A3E0B4E019D01B97083E23E0120764F41D
:101760001B960F5F1F4F1C930E93D4D7A9CF0FD09A
:1017700019F401E084D0A4CF00E089919991A99156
:10178000B9910895A1E0B4E00D911C9108950091E4
:1017900010040023089500910F04A3C718960D9319
:1017A0001C930895D7DE002371F00A95B9F00A95CD
:1017B00081F10A9509F440C00A9509F44DC00A95D3
:1017C00009F456C05AC021DF002319F00A950C9382
:1017D00002C008E078D067D001E050C0D3DF19978D
:1017E0000B3020E012070CF448C00233120741F01E
:1017F000043F21E0120721F0083823E1120721F409
:10180000000F111F45E001C042E03CD0C7DF41D0CE
:10181000E3CF00910F04023080F1053011F0023364
:1018200031F412E0019F800145E02CD001C0069503
:1018300000930F04B0DFD0CF49D0023C1D4B204FA6
:101840004FEF3407D4F011961D912D9101501040A7
:101850002040304023D0C0CFA3E0B4E0ED91FC9114
:101860001B97329754F01A968FDF0ED053D7B4CF10
:101870008EDF19F000E003D0AFCF00E080CF0093FF
:10188000100452C750E09CC0015010401C930E93AE
:101890000895199718960D911C91FAC63C932E93B2
:1018A0001E930E932EC720910E044DE050E010E0E1
:1018B000420F511F3BD000930D04022FC5D600915B
:1018C0000D0435C700E000930E040895F0DC0D917F
:1018D0001D912D913C91139708952FB7F89404E62C
:1018E00010E0E1E1F4E0008311832FBF08952FB7EA
:1018F000F8940CE211E0F5CF00008895FECF0FE5DB
:101900000DBF01E00EBFC0EED0E0BCD1002309F056
:10191000C9D11ADBF1DFF0CFE199FECF08954F5F17
:101920005F4FFADF4EBB5FBBE09A0895FADF0DB35D
:101930000895F7DF0DB3F3DF1DB30895F2DF0DB3A4
:10194000EEDF1DB3ECDF2DB3EADF3DB308954F5F4B
:101950005F4F4EBB5FBBF894E29AE19A0FBE0895C9
:101960000FB6DADF0DBBF5CF0FB6D6DF0DBBF1DF5B
:10197000D3DF1DBBECCF0FB6CFDF0DBBEADFCCDF73
:101980001DBBE5DFC9DF2DBBE2DFC6DF3DBBDFCF1F
:1019900000241124EFE0001F111F001C111C04166D
:1019A000150610F0041A150AEA95AAF7001F111F70
:1019B000A0010095109508955195419550400895C6
:1019C000FF27552312F4F160F7DF112312F4F0958D
:1019D00006D0DEDFF0FD03D0F1FDEECF08951195C6
:1019E000019510400895002411241001E0E2EA95C9
:1019F00092F0001F111F221F331F001C111C221CFC
:101A0000331C041615062606370688F3041A150A31
:101A1000260A370AECCF001F111F221F331FA00117
:101A2000B10100951095209530950895FF277723F3
:101A300012F4F16014D0332312F4F09508D0D3DF00
:101A4000F69508F404D0F69508F409C00895309589
:101A50002095109501951F4F2F4F3F4F089570957A
:101A60006095509541955F4F6F4F7F4F0895AF93AD
:101A7000BF93D80101900D9241505040D9F7BF91CA
:101A8000AF9108958A939A934A925A926A92AA932E
:101A9000BA930024112410012001F00188E06D9018
:101AA00098E0662049F4762F652F542F432F322F6C
:101AB000212F102F002714C0669440F4000E111E31
:101AC000221E331E441E551EE61FF71F000F111F56
:101AD000221F331F441F551F661F771F9A9561F7FA
:101AE0008A95E9F680019101A201BF01B991A991FE
:101AF00069905990499099918991089502D02DD07B
:101B00000EC04A928A939A93AA93BA938D914D905C
:101B1000ED91FD910D901D902D903C9008950991AF
:101B20001991299139914991599169917991001FA0
:101B3000111F221F331F441F551F661F771F00955B
:101B40001095209530954095509560957095B99178
:101B5000A99199918991499008950F931F932F937B
:101B60003F934F935F936F937F93002711279801C3
:101B7000A801B801B7E0A8E09F91AA95DAF0991FF3
:101B8000001F111F221F331F441F551F661F771F81
:101B9000081714052E073F07400551056205730518
:101BA00060F3081B14092E0B3F0B40095109620911
:101BB0007309E3CF9A93A8E0BA95EAF60895A1DFF6
:101BC000992733208AF491604094E095F095009431
:101BD0001094209430948195BFEF4B0AEB0BFB0BD4
:101BE0000B0A1B0A2B0A3B0A772312F4909529D083
:101BF00090FBB3CFE4DF93DF0EF423D00895808110
:101C0000080F8181181F8281281F8381381F8481DA
:101C1000481F8581581F8681681F8781781F089516
:101C20008081081B8181180B8281280B8381380BEE
:101C30008481480B8581580B8681680B8781780BDE
:101C40000895109520953095409550956095709524
:101C500001951F4F2F4F3F4F4F4F5F4F6F4F7F4F9C
:101C60000895808108178181180782812807838160
:101C700038078481480785815807868168078781EE
:101C80007807089501E0089520E006D0E9F7089567
:101C9000259102D0E9F708952D9301501040202F8F
:101CA000212B08958EE691E0FC0105911491FC0131
:101CB0003296A591B491FC01349625913491422F2E
:101CC000432B19F0F901E4DF01C0DEDF069611E0D5
:101CD0008A37910748F308950080BB000000000098
:101CE000640000000000000000E1F50500000000B5
:101CF0000000000000000000F65AD07B63080000DE
:101D000040420F0000000000A38D23D6E2530000E4
:101D1000A0860100000000000A0000000000000092
:101D20006588635DDC4603001027000000000000AA
:101D3000F753E3A59BC42000E80300000000000067
:101D4000AE47E17A14AE470180969800000000008B
:101D500060EA0000000000000000008000000000B9
:081D600001000080FFFFFFFFFE
:00000001FF
:00000001FF
